:1000000014C1000042C1000040C100003EC1000018
:100010003CC100003AC1000038C1000036C10000F8
:1000200034C1000032C1000030C100002EC1000008
:100030002CC100002AC1000028C1000026C1000018
:1000400024C1000022C1000020C100001EC1000028
:100050001CC100001AC1000018C1000070C30000DC
:1000600014C1000007C30000DCC200000EC1000084
:100070000CC100000AC1000008C1000006C1000058
:1000800004C1000002C1000000C10000FEC0000069
:10009000FCC00000FAC00000F8C00000F6C000007C
:1000A000F4C00000F2C00000F0C00000EEC000008C
:1000B000ECC00000EAC00000E8C00000E6C000009C
:1000C000E4C00000E2C00000E0C00000DEC00000AC
:1000D000DCC00000DAC00000D8C00000D6C00000BC
:1000E000D4C000006B026E025D0261026702A502CD
:1000F000720276027C02800284028A028E029202DE
:10010000A50298029C02A002000020002300260005
:1001100029002C002F00320000010000030106011D
:10012000090100000A0B02090C0D0E080703040167
:1001300000000000000000000000000000000000BF
:10014000000000000000000000000000000012118C
:10015000100000000000000000000000000000008F
:100160000000000000000000000022002500280020
:100170002B002E00310034000201000005010801AF
:100180000B0100002100240027002A002D00300070
:10019000330001010000040107010A0105050505FE
:1001A000070508080808020202020A0A08080404EF
:1001B000040401010101010101010303030303031D
:1001C0000303040707070C0C0C0C0C0C0C0C0202AC
:1001D000020206060606060606060B0B0B0B0B0BA9
:1001E0000B0B010210202008081020401020408036
:1001F00002010201080402010102040810204080EB
:100200008040201008040201800402018040201078
:1002100008040201080402010102040810204080C1
:100220000102040810204080730A11241FBECFEF82
:10023000D1E2DEBFCDBF00E00CBF22E0AAE2B2E017
:1002400001C01D92A53EB207E1F712E0A0E0B2E0C6
:10025000E8E2FAE100E00BBF02C007900D92AA327B
:10026000B107D9F711E0C5E1D1E000E006C0219760
:100270000109802FFE010E94E50AC431D10780E008
:100280000807A9F71AD70C94120DBACE089580E08A
:1002900090E00895FC01538D448D252F30E0842F8C
:1002A00090E0821B930B541710F0CF96089501979E
:1002B0000895FC01918D828D981761F0828DDF0188
:1002C000A80FB11D5D968C91928D9F5F9F73928F49
:1002D00090E008958FEF9FEF0895FC01918D828D3E
:1002E000981731F0828DE80FF11D858D90E008950B
:1002F0008FEF9FEF0895FC01918D228D892F90E063
:10030000805C9F4F821B91098F739927089584E326
:1003100092E0F1DF21E0892B09F420E0822F08959B
:10032000FC01848DDF01A80FB11DA35ABF4F2C9192
:10033000848D90E001968F739927848FA689B78961
:100340002C93A089B1898C9180648C93938D848D3A
:10035000981306C00288F389E02D80818F7D808309
:100360000895EF92FF920F931F93CF93DF93EC01C9
:1003700081E0888F9B8D8C8D981305C0E889F98961
:10038000808185FD23C0F62E0B8D10E00F5F1F4F7F
:100390000F731127E02E8C8DE8120BC00FB607FCEF
:1003A000FACFE889F989808185FFF5CFCE01B8DFE2
:1003B000F2CF8B8DFE01E80FF11DE35AFF4FF08263
:1003C0000B8FEA89FB898081806207C0EE89FF89F3
:1003D0006083E889F98980818064808381E090E08E
:1003E000DF91CF911F910F91FF90EF900895CF93E0
:1003F000DF93EC01888D8823C1F0EA89FB89808135
:1004000085FD05C0A889B9898C9186FD0EC00FB6FF
:1004100007FCF5CF808185FFF2CFA889B9898C913F
:1004200085FFEDCFCE017CDFE8CFDF91CF9108953E
:1004300080E090E0892B19F06ADF811125C080E00F
:1004400090E0892B41F080E090E0892B21F00E9420
:10045000000081111CC080E090E0892B41F080E019
:1004600090E0892B21F00E940000811113C080E0F0
:1004700090E0892BA1F080E090E0892B81F00E9430
:10048000000081110AC008950E940000D8CF0E9488
:100490000000E1CF0E940000EACF0C940000089514
:1004A00090E0FC013197E231F10508F04EC0882759
:1004B000EE58FF4F8F4F0C94E50A809180008F77A4
:1004C00003C0809180008F7D80938000089580918B
:1004D0008000877FF9CF84B58F7702C084B58F7D88
:1004E00084BD08958091B0008F7703C08091B000E3
:1004F0008F7D8093B0000895809190008F7707C022
:10050000809190008F7D03C080919000877F8093C1
:10051000900008958091A0008F7707C08091A0007F
:100520008F7D03C08091A000877F8093A0000895F5
:10053000809120018F7707C0809120018F7D03C0BB
:1005400080912001877F8093200108953FB7F89420
:1005500080912B0290912C02A0912D02B0912E023D
:1005600026B5A89B05C02F3F19F00196A11DB11D0E
:100570003FBFBA2FA92F982F8827820F911DA11D49
:10058000B11DBC01CD0142E0660F771F881F991F86
:100590004A95D1F708958F929F92AF92BF92CF92D2
:1005A000DF92EF92FF926B017C01D0DF4B015C0187
:1005B000C114D104E104F104E9F0C8DFDC01CB018E
:1005C00088199909AA09BB09883E9340A105B1057C
:1005D00078F321E0C21AD108E108F10888EE880E0C
:1005E00083E0981EA11CB11CC114D104E104F104E4
:1005F00021F7DECFFF90EF90DF90CF90BF90AF90CC
:100600009F908F900895DC01ED91FD91BD010190C7
:10061000F081E02D40E0199591E0811190E0892F63
:1006200008951F920F920FB60F9211240BB60F92DE
:100630002F933F934F935F936F937F938F939F93EA
:10064000AF93BF93EF93FF9384E392E069DEFF9152
:10065000EF91BF91AF919F918F917F916F915F913A
:100660004F913F912F910F900BBE0F900FBE0F90A7
:100670001F9018951F920F920FB60F9211240BB670
:100680000F922F938F939F93EF93FF93E0914402E8
:10069000F09145028081E0914A02F0914B0282FD87
:1006A00012C0908180914D028F5F8F7320914E0216
:1006B000821751F0E0914D02F0E0EC5CFD4F958F18
:1006C00080934D0201C08081FF91EF919F918F91A6
:1006D0002F910F900BBE0F900FBE0F901F9018958B
:1006E0001F93CF93DF93282F30E0F901EE5DFE4F8B
:1006F0008491F901EE51FE4FD491F901E456FE4F79
:10070000C491CC23C1F0162F8111CADEEC2FF0E08A
:10071000EE0FFF1FE859FE4FA591B4918FB7F894E3
:10072000111105C09C91ED2FE095E92302C0EC91D9
:10073000ED2BEC938FBFDF91CF911F9108951F9206
:100740000F920FB60F9211242F933F938F939F9385
:10075000AF93BF938091300290913102A091320209
:10076000B091330230912A0223E0230F2D3720F479
:100770000196A11DB11D05C026E8230F0296A11DFB
:10078000B11D20932A028093300290933102A093EE
:100790003202B093330280912B0290912C02A091EF
:1007A0002D02B0912E020196A11DB11D80932B0246
:1007B00090932C02A0932D02B0932E02BF91AF9183
:1007C0009F918F913F912F910F900FBE0F901F908F
:1007D000189508958EBD00000DB407FEFDCF8EB5AF
:1007E00008958CBD9DBD08951F93CF93DF93EC01B9
:1007F000162F83E590E0F5DF60E08E8571DF812FB5
:100800008068E8DF80E0E6DF182F61E08E8568DF32
:10081000812FDF91CF911F910895EF92FF921F9347
:10082000CF93DF931F92CDB7DEB77C01162F83E500
:1008300090E04983D6DF60E0F701868551DF812FA4
:10084000C9DF4981842FC6DF61E0F70186850F90FB
:10085000DF91CF911F91FF90EF9042CF8F929F92A7
:10086000AF92CF92EF92FF920F931F93CF93DF93AC
:1008700000D01F921F92CDB7DEB74C0182E08D836E
:1008800040E064E2C401C9DF40E066E2C401C5DFC4
:1008900046E268E4C401C1DF86E28C838D81823048
:1008A00028F16CE1C401A0DF482F4F776CE1C4014F
:1008B000B4DF87E08B83A12CC12CCE0103967C0191
:1008C0008E010B5F1F4F9E012F5F3F4F41E0BE0126
:1008D0006C5F7F4FC401CED281110BC08D818230FD
:1008E00039F481E09B81911104C008C084E001C00B
:1008F00081E091E0823019F090E001C091E0892F11
:100900000F900F900F900F900F90DF91CF911F914C
:100910000F91FF90EF90CF90AF909F908F900895A0
:10092000CF92DF92EF92FF920F931F93CF93DF93BB
:10093000EC016B01142F790140E062E06EDF44E0CE
:100940006AE0CE016ADF40E864E1CE0166DFA6011D
:10095000612FCE0159D243E062E0CE015EDF08E8AC
:1009600013E16AE0CE0140DF82FF10C040E062E0A8
:10097000CE0153DF64E4CE0137DFF701808362E408
:10098000CE0132DFF701818380E004C001501109FC
:1009900041F783E0DF91CF911F910F91FF90EF908E
:1009A000DF90CF9008952F923F924F925F926F9277
:1009B0007F928F929F92AF92BF92CF92DF92EF92EF
:1009C000FF920F931F93CF93DF93CDB7DEB72D9791
:1009D0000FB6F894DEBF0FBECDBF413508F00AC197
:1009E000342E3B014C016CE1FFDE482F4F776CE168
:1009F000C40113DFBB24B39422E0B21691F033E0BC
:100A0000B316E1F041E0B412F9C083E989833320E1
:100A1000D1F081E0F3019081953008F480E0D12C91
:100A200017C085E98983332081F081E0F30190814B
:100A3000983008F480E053E0D52E0AC087E9898316
:100A400046E0D42E04C0D12C02C033E0D32E80E087
:100A5000532DF8EFDF9E500D112457FD50E08823F1
:100A600021F098E89B8343E001C042E021E0952F0C
:100A7000977009F420E0952F959595959595290FF8
:100A800021F4882311F1585F20C0811102C094E045
:100A900001C093E0291708F4922F20E030E06D2D7B
:100AA00070E0E42FE20FA1E0B0E0AC0FBD1FAE0F8D
:100AB000B11DF901E60FF71FE60DF71DE181EC937B
:100AC0002F5F3F4F291768F3DCCF23E0222E5032EF
:100AD000F4F020E72A839C818B8189279D818927D7
:100AE0009E8189278F839E01285F3F4F47E0BE018B
:100AF0006F5F7F4FC4015D8713DF5D858111C9C0C2
:100B00001B862A86CE0107962C0179E01EC0952F00
:100B100097709B87252F25952595259582E0820F37
:100B2000392FE0E18E9F300D11243A8371E091114D
:100B300001C070E0780F44244394512C4C0E5D1E8C
:100B4000480E511C87E0821B8A87CB844C2D42952E
:100B5000407F4C0D6AE1C4015D877C875EDEA12C7D
:100B60009E01255F3F4F79018E01065F1F4F920165
:100B70007C85472FBE016F5F7F4FC4017BD15D85B0
:100B8000823091F56CE1C4012FDE5D8585FD34C0B6
:100B90008F7109F480E2282F30E0452F550F550B57
:100BA000421753075CF5582FC901019787709927A1
:100BB00025952595259531E0320F21E0009709F420
:100BC00020E0230FE1E0F0E0EC0FFD1FE20FF11D4C
:100BD00021E030E002C0220F331F8A95E2F7C901FD
:100BE0009081892B808373CF811153C0503244F49C
:100BF00050E26FCF86E04DC082E04BC085E049C037
:100C00008B81883809F042C033E023E080E090E037
:100C10006D2D70E0FC01E60FF71FE60DF71D432F69
:100C2000480FA1E0B0E0AC0FBD1FA40FB11D4C9167
:100C300041830196821770F38A85833019F58B857D
:100C4000811120C09E012D5F3F4F41E0B201C401E0
:100C500067DE81111EC09B81F2018181981314C04F
:100C60009C818281981310C0808182FF02C0B3945E
:100C7000C3CEF30183878B2D880FB80EB394B08257
:100C800080E007C081E005C087E003C032E024E0D7
:100C9000BDCF2D960FB6F894DEBF0FBECDBFDF914E
:100CA000CF911F910F91FF90EF90DF90CF90BF9069
:100CB000AF909F908F907F906F905F904F903F90FC
:100CC0002F900895CF92DF92EF92FF920F931F9390
:100CD000CF93DF936C017A018B01C0E0D0E0CE1599
:100CE000DF0589F0D8016D918D01D601ED91FC9160
:100CF0000190F081E02DC6011995892B11F47E0138
:100D000002C02196ECCFC701DF91CF911F910F91C7
:100D1000FF90EF90DF90CF90089570D62FB7F894A2
:100D20008091300290913102A0913202B091330251
:100D30002FBF80933C0290933D02A0933E02B0935C
:100D40003F02E0913402F09135020284F385E02DF8
:100D500084E392E0199597FF26C02FB7F89480910D
:100D6000300290913102A0913202B09133022FBF34
:100D700040913C0250913D0260913E0270913F02D1
:100D8000841B950BA60BB70B40913802509139028A
:100D900060913A0270913B0284179507A607B70746
:100DA00080F28FEF9FEF089590E0FC01EE51FE4F2F
:100DB0002491FC01E456FE4F8491882399F090E041
:100DC000880F991FFC01EE57FE4FA591B491FC01CD
:100DD000E859FE4F859194918FB7F894EC91E22BEE
:100DE000EC938FBF0895009761F0FC010190002003
:100DF000E9F73197AF01481B590BBC0184E392E03E
:100E000061CF80E090E00895CF92DF92EF92FF9261
:100E10000F931F93CF93DF931F921F92CDB7DEB72F
:100E20008C01F62E83E590E049835A83DADC60E09A
:100E3000F801868555DC82E1CDDC4981E42EC42EA3
:100E40005A81D52E8C2D8E198F1528F4F60181919B
:100E50006F01C0DCF7CF61E0F801868541DC0F90BF
:100E60000F90DF91CF911F910F91FF90EF90DF9046
:100E7000CF90AFCC4F925F926F927F928F929F9262
:100E8000AF92BF92CF92DF92EF92FF920F931F9398
:100E9000CF93DF931F921F92CDB7DEB74C012B018A
:100EA000D42E3901E114F10419F0F701408101C099
:100EB00040E0B42EF0E1CF9EB00C112440E062E09F
:100EC000C401ABDC4FE768E0C401A7DC40E864E1A3
:100ED000C401A3DCA2016D2DC40196DF4B2D6AE194
:100EE000C4019BDC4CE062E0C40197DC6AE1C40110
:100EF0007BDC482F40686AE1C4018FDC80ED482E1E
:100F000087E0582E68E0C4016FDC982F907341F49D
:100F100080FD04C081E0481A5108A1F783E094C025
:100F20006CE0C40161DCD82E837109F08CC06114BF
:100F3000710409F44FC00115110509F44BC064E1B7
:100F4000C40152DCB82EF80180818B1508F475C0FD
:100F5000B082BB20A9F183E590E043DC60E0F401BE
:100F60008685BEDB82E936DCCC2099F08FEF90E0FD
:100F70002C0101C0440CCA94EAF782E92BDC8421DD
:100F80004094F3019081492284298083CC24C39426
:100F900001C0C12CBA944C2C512C460C571CCB14BC
:100FA00030F482E917DCF2018083C394F4CF80E04F
:100FB00011DCF201808361E0F401868591DB09DCBC
:100FC00068E1C40111DC8770E114F10421F0F7013C
:100FD000808301C080E0D3FC32C06114710489F1C8
:100FE0000115110571F1AA2061F1F801408141302C
:100FF00019F4843019F41FC0423010F487E024C083
:101000008111FCCF42509E012F5F3F4FB301C401BD
:1010100087DC811119C0F8018081680E711CF30111
:101020003297908189819813E9CF319690818A8196
:101030009813E4CF06C08FEF07C084E005C082E0BC
:1010400003C080E001C081E00F900F90DF91CF914D
:101050001F910F91FF90EF90DF90CF90BF90AF90D6
:101060009F908F907F906F905F904F9008950F9317
:101070001F93CF93DF93EC0188819981009729F02A
:101080002A813B812617370780F48B016F5F7F4FE2
:10109000D1D3009761F0998388831B830A832C81C5
:1010A0003D81232B11F4FC01108281E001C080E01E
:1010B000DF91CF911F910F910895CF93DF93CDB71B
:1010C000DEB7A3970FB6F894DEBF0FBECDBF7894FE
:1010D00084B5826084BD84B5816084BD85B582603D
:1010E00085BD85B5816085BD80916E0081608093EE
:1010F0006E00109281008091810082608093810057
:101100008091810081608093810080918000816066
:10111000809380008091B10084608093B1008091C1
:10112000B00081608093B0008091910082608093D4
:101130009100809191008160809391008091900056
:101140008160809390008091A10082608093A100D3
:101150008091A10081608093A1008091A0008160B6
:101160008093A00080912101826080932101809171
:101170002101816080932101809120018160809311
:10118000200180917A00846080937A0080917A00B7
:10119000826080937A0080917A00816080937A00E7
:1011A00080917A00806880937A001092C100E0916B
:1011B0004402F091450282E08083E0914002F09188
:1011C00041021082E0914202F09143028FEC808351
:1011D00010924C02E0914802F091490286E080832F
:1011E000E0914602F0914702808180618083E09126
:1011F0004602F0914702808188608083E091460238
:10120000F0914702808180688083E0914602F091EE
:10121000470280818F7D80831FB7F89480912F02D1
:10122000811120C0E1EDF1E08491E7E1F2E09491D9
:10123000E82FF0E0EE0FFF1FEE57FE4FA591B4919F
:10124000EC91E92319F461E085E34ADA85E3ACDD4A
:101250008CB580618CBD8CB580648CBD84E3A4DDCD
:1012600083E3A2DD80912F028F5F80932F021FBF47
:101270008091DF0299DD61E08091DF0231DA8091B7
:10128000E0028F3F59F44FE062E081ED92E0C5DA71
:1012900062E370E080E090E07ED922C085DD20919D
:1012A000E00230E0F901EE5DFE4F8491F901EE516C
:1012B000FE4F0491F901E456FE4F1491112309F4F5
:1012C00008C18111EDD8E12FF0E0EE0FFF1FE85FBC
:1012D000FE4FA591B491EC91E02309F4FAC0D3CF6D
:1012E00062E081ED92E080DA84FDFACF40E064E2D2
:1012F00081ED92E092DA40E066E281ED92E08DDAF3
:1013000046E268E481ED92E088DA40E864E581ED48
:1013100092E083DA49EA66E581ED92E07EDA43E025
:1013200068E581ED92E079DA48EE6AE581ED92E0D8
:1013300074DA40E46AE281ED92E06FDA4DE362E252
:1013400081ED92E06ADA68E281ED92E04DDA982F61
:101350009370933031F0482F436068E281ED92E062
:101360005CDA86E121DD60E086E1BAD98DE01CDD42
:1013700060E08DE0B5D934EDE32E32E0F32E81ED5F
:1013800092E06CDA882309F4A1C081ED92E03BD9A8
:10139000882309F49BC0D090D30204ED12E0802F83
:1013A0008E198D15A0F55801F8018081803118F053
:1013B00085E292E002C082E292E015DD0F5F1F4FEE
:1013C000F501408150E060E070E019A2FE01B196A5
:1013D000DB01CA018F709927AA27BB2724E07695E5
:1013E0006795579547952A95D1F731978A3091059A
:1013F000A105B10510F4805D01C0895C80834115B1
:1014000051056105710521F7CF01EDDCC8CF87E2F9
:1014100092E0E9DC84E392E00E947B01892B09F4ED
:1014200055C01A8219821C821B821E821D8260E0B6
:1014300070E0CE0101961BDE29813A8181110CC03A
:101440002115310511F0C9015DD11A8219821E8260
:101450001D821C821B821FC01E821D8269E272E0F7
:10146000C901D9D218C08AA31BA20D811E810F5FAA
:101470001F4FB801CE010196FADD882361F0298162
:101480003A818D819E81BE016E5D7F4F820F931FD9
:10149000C2D21E830D8342DC97FFE5CF89819A81FA
:1014A000009789F057D016161706180619065CF42F
:1014B00061E08DE015D968E873E180E090E06BD8D9
:1014C00060E08DE00DD989819A811CD10E941802BB
:1014D00056CF61E08091E00203D962E370E080E0E2
:1014E00090E059D803CFE4E3F2E01382128288EE51
:1014F00093E0A0E0B0E084839583A683B7838AE07D
:1015000092E09183808385EC90E09587848784ECDA
:1015100090E09787868780EC90E0918B808B81ECC0
:1015200090E0938B828B82EC90E0958B848B86ECA1
:1015300090E0978B868B118E128E138E148EE1EDB8
:10154000F2E08CE192E09183808385E3868785E0F9
:10155000878708951F93FC0199278827BC01E89489
:1015600011911032E9F3193010F01E30C8F31B321C
:1015700049F01D3241F4689405C012D0610F711D0D
:10158000811D911D119110531A30B8F33EF49095BE
:101590008095709561957F4F8F4F9F4F1F91089554
:1015A000592F482F372F262F660F771F881F991F17
:1015B000660F771F881F991F620F731F841F951F67
:1015C000660F771F881F991F0895EE0FFF1F881F52
:1015D0008BBF0790F691E02D1994CF93DF93823063
:1015E000910510F482E090E0E091E302F091E402D2
:1015F00020E030E0C0E0D0E0309711F1408151812F
:1016000048175907C0F04817590761F48281938140
:10161000209719F09B838A832BC09093E4028093D8
:10162000E30226C02115310519F04217530718F4BB
:101630009A01BE01DF01EF010280F381E02DDCCFD2
:101640002115310509F1281B390B2430310590F49F
:1016500012968D919C9113976115710521F0FB01F4
:101660009383828304C09093E4028093E302FD019C
:10167000329644C0FD01E20FF31F819391932250F3
:1016800031092D933C933AC02091E1023091E2025E
:10169000232B41F420910202309103023093E202A5
:1016A0002093E102209100023091010221153105C1
:1016B00041F42DB73EB74091040250910502241B1E
:1016C000350BE091E102F091E202E217F307A0F49A
:1016D0002E1B3F0B2817390778F0AC014E5F5F4F88
:1016E0002417350748F04E0F5F1F5093E2024093D6
:1016F000E1028193919302C0E0E0F0E0CF01DF913D
:10170000CF9108950F931F93CF93DF93009709F420
:101710008CC0FC013297138212820091E302109177
:10172000E4020115110581F420813181820F931F9C
:101730002091E1023091E2022817390779F5F09300
:10174000E202E093E10271C0D80140E050E0AE1740
:10175000BF0750F412962D913C911397AD012115BE
:10176000310509F1D901F3CF9D01DA0133832283D9
:1017700060817181860F971F8217930769F4EC01CE
:1017800028813981260F371F2E5F3F4F31832083F9
:101790008A819B8193838283452B29F4F093E40211
:1017A000E093E30242C01396FC93EE931297ED018F
:1017B000499159919E01240F351FE217F30771F4E7
:1017C00080819181840F951F029611969C938E9330
:1017D0008281938113969C938E931297E0E0F0E0C0
:1017E000D80112968D919C911397009719F0F801EA
:1017F0008C01F6CF8D919C9198012E5F3F4F820F07
:10180000931F2091E1023091E2022817390769F411
:10181000309729F41092E4021092E30202C013827E
:1018200012821093E2020093E102DF91CF911F91A7
:101830000F9108956F927F928F929F92AF92BF9275
:10184000CF92DF92EF92FF920F931F93CF93DF938C
:10185000EC01009781F4CB01DF91CF911F910F91A3
:10186000FF90EF90DF90CF90BF90AF909F908F90C0
:101870007F906F90B2CEFC01E60FF71F9C012250C3
:101880003109E217F30708F4A8C0D9010D911C91A2
:10189000119706171707A8F00530110508F49BC02B
:1018A000C80104978617970708F495C002501109DC
:1018B000061B170B019311936D937C93CF0122DFCD
:1018C0008AC05B01A01AB10A4C01800E911EA09142
:1018D000E302B091E40240E050E0E12CF12C1097DB
:1018E00009F44AC0A815B905D1F56D907C901197FF
:1018F000630182E0C80ED11CCA14DB0480F1A3018D
:101900004A195B096A0182E0C80ED11C1296BC908C
:1019100012971396AC91B5E0CB16D10440F0B28289
:10192000A38351834083D9016D937C930AC00E5FDA
:101930001F4FC301800F911FF90191838083EB2D0D
:10194000FA2FE114F10431F0D7011396FC93EE93D2
:10195000129741C0F093E402E093E3023CC08D9102
:101960009C9111974817590708F4AC017D01129614
:101970000D90BC91A02DB3CF8091E1029091E20235
:1019800088159905E1F446175707C8F480910002BD
:1019900090910102009741F48DB79EB740910402E7
:1019A00050910502841B950BE817F907B0F4F093EA
:1019B000E202E093E102F901718360830CC0CB0184
:1019C0000CDE7C01009749F0A801BE011BD0CE01BE
:1019D00099DEC70104C0CE0102C080E090E0DF9133
:1019E000CF911F910F91FF90EF90DF90CF90BF901C
:1019F000AF909F908F907F906F90089581E090E0DE
:101A0000F89410C0FB01DC0102C001900D9241501E
:101A10005040D8F70895FB01DC0101900D920020A1
:081A2000E1F70895F894FFCFEF
:101A28000000E502800000000000B10162064A01E2
:101A3800F7017B0159016D0100000000D3042E0459
:0A1A4800030320300020000D0A0007
:00000001FF
