:10000000C8C10000F6C10000F4C10000F2C1000048
:10001000F0C10000EEC10000ECC10000EAC1000028
:10002000E8C10000E6C10000E4C10000E2C1000038
:10003000E0C10000DEC10000DCC10000DAC1000048
:10004000D8C10000D6C10000D4C10000D2C1000058
:10005000D0C10000CEC10000CCC10000F8C3000038
:10006000C8C1000095C200006AC20000C2C1000001
:10007000C0C10000BEC10000BCC10000BAC1000088
:10008000B8C10000B6C10000B4C10000B2C1000098
:10009000B0C10000AEC10000ACC10000AAC10000A8
:1000A000A8C10000A6C10000A4C10000A2C10000B8
:1000B000A0C100009EC100009CC100009AC10000C8
:1000C00098C1000096C1000094C1000092C10000D8
:1000D00090C100008EC100008CC100008AC10000E8
:1000E00088C100008C038F037E0382038803C6034C
:1000F000930397039D03A103A503AB03AF03B303CE
:10010000C603B903BD03C10300002000230026007D
:1001100029002C002F00320000010000030106011D
:10012000090100000A0B02090C0D0E080703040167
:1001300000000000000000000000000000000000BF
:10014000000000000000000000000000000012118C
:10015000100000000000000000000000000000008F
:1001600000000000000000005472792074686520CF
:100170006D6F737420757365642064656661756C5A
:1001800074206B65797320746F207072696E7420AF
:10019000626C6F636B2030206F662061204D494692
:1001A00041524520504943432E00556E6B6E6F7788
:1001B0006E20747970650053414B20696E646963E9
:1001C0006174657320554944206973206E6F7420F3
:1001D000636F6D706C6574652E004D4946415245E4
:1001E00020544E5033585858004D494641524520EE
:1001F00044455346697265004D4946415245205079
:100200006C7573004D494641524520556C747261BE
:100210006C69676874206F7220556C7472616C69C8
:100220006768742043004D494641524520344B4293
:10023000004D494641524520314B42004D4946410F
:100240005245204D696E692C20333230206279741A
:100250006573005049434320636F6D706C69616E34
:100260007420776974682049534F2F4945432031E2
:100270003830393220284E46432900504943432024
:10028000636F6D706C69616E742077697468204962
:10029000534F2F4945432031343434332D34003A01
:1002A00000426C6F636B200053756363657373204A
:1002B00077697468206B65793A005049434320742C
:1002C0007970653A200043617264205549443A00D0
:1002D00000002200250028002B002E0031003400F1
:1002E00002010000050108010B01000021002400AB
:1002F00027002A002D003000330001010000040116
:1003000007010A0105050505070508080808020296
:1003100002020A0A0808040404040101010101019F
:1003200001010303030303030303040707070C0C82
:100330000C0C0C0C0C0C0202020206060606060649
:1003400006060B0B0B0B0B0B0B0B010210202008EE
:100350000810204010204080020102010804020120
:10036000010204081020408080402010080402018F
:1003700080040201804020100804020108040201E8
:10038000010204081020408001020408102040806F
:10039000450D11241FBECFEFD1E2DEBFCDBF00E07F
:1003A0000CBF23E0A8EBB2E001C01D92AF3BB20747
:1003B000E1F712E0A0E0B2E0ECE7FBE100E00BBF08
:1003C00002C007900D92A83BB107D9F711E0C9EC24
:1003D000D1E000E006C021970109802FFE010E94B4
:1003E000B00DC83CD10780E00807A9F7B9D70C9435
:1003F000BC0D06CE089580E090E00895FC01538D79
:10040000448D252F30E0842F90E0821B930B5417EE
:1004100010F0CF96089501970895FC01918D828D7B
:10042000981761F0828DDF01A80FB11D5D968C9148
:10043000928D9F5F9F73928F90E008958FEF9FEF53
:100440000895FC01918D828D981731F0828DE80F0F
:10045000F11D858D90E008958FEF9FEF08958AEC50
:1004600092E0CCD021E0892B09F420E0822F08957E
:10047000EF92FF920F931F93CF93DF93EC0181E0F4
:10048000888F9B8D8C8D981305C0E889F9898081B0
:1004900085FD23C0F62E0B8D10E00F5F1F4F0F73ED
:1004A0001127E02E8C8DE8120BC00FB607FCFACF97
:1004B000E889F989808185FFF5CFCE01F1D0F2CFAF
:1004C0008B8DFE01E80FF11DE35AFF4FF0820B8F79
:1004D000EA89FB898081806207C0EE89FF89608399
:1004E000E889F98980818064808381E090E0DF91F0
:1004F000CF911F910F91FF90EF900895CF93DF93CD
:10050000EC01888D8823C1F0EA89FB89808185FD13
:1005100005C0A889B9898C9186FD0EC00FB607FC6D
:10052000F5CF808185FFF2CFA889B9898C9185FFAD
:10053000EDCFCE01B5D0E8CFDF91CF9108951F92D6
:100540000F920FB60F9211240BB60F922F933F9379
:100550004F935F936F937F938F939F93AF93BF93CB
:10056000EF93FF938AEC92E09BD0FF91EF91BF91C4
:10057000AF919F918F917F916F915F914F913F913B
:100580002F910F900BBE0F900FBE0F901F901895DC
:100590001F920F920FB60F9211240BB60F922F934A
:1005A0008F939F93EF93FF93E091DA02F091DB0238
:1005B0008081E091E002F091E10282FD12C0908121
:1005C0008091E3028F5F8F732091E402821751F0D4
:1005D000E091E302F0E0E653FD4F958F8093E30254
:1005E00001C08081FF91EF919F918F912F910F908A
:1005F0000BBE0F900FBE0F901F901895FC01918DB0
:10060000228D892F90E0805C9F4F821B91098F7310
:100610009927089580E090E0892B19F020DF81115F
:1006200025C080E090E0892B41F080E090E0892BAC
:1006300021F00E94000081111CC080E090E0892B15
:1006400041F080E090E0892B21F00E9400008111B0
:1006500013C080E090E0892BA1F080E090E0892B2E
:1006600081F00E94000081110AC008950E940000DC
:10067000D8CF0E940000E1CF0E940000EACF0C9486
:1006800000000895DC01ED91FD91BD010190F08124
:10069000E02D40E0199591E0811190E0892F0895B7
:1006A000FC01848DDF01A80FB11DA35ABF4F2C910F
:1006B000848D90E001968F739927848FA689B789DE
:1006C0002C93A089B1898C9180648C93938D848DB7
:1006D000981306C00288F389E02D80818F7D808386
:1006E000089590E0FC013197E231F10508F04EC029
:1006F0008827EE58FF4F8F4F0C94B00D80918000EB
:100700008F7703C0809180008F7D80938000089553
:1007100080918000877FF9CF84B58F7702C084B540
:100720008F7D84BD08958091B0008F7703C0809144
:10073000B0008F7D8093B0000895809190008F77F6
:1007400007C0809190008F7D03C080919000877FCB
:100750008093900008958091A0008F7707C08091CA
:10076000A0008F7D03C08091A000877F8093A000B0
:100770000895809120018F7707C0809120018F7D9F
:1007800003C080912001877F8093200108951F93EB
:10079000CF93DF93282F30E0F901EE5DFE4F849177
:1007A000F901E65BFC4FD491F901EC5FFC4FC49179
:1007B000CC23C1F0162F811194DFEC2FF0E0EE0F67
:1007C000FF1FE053FD4FA591B4918FB7F89411111D
:1007D00005C09C91ED2FE095E92302C0EC91ED2B33
:1007E000EC938FBFDF91CF911F9108953FB7F8949D
:1007F0008091C6029091C702A091C802B091C9022F
:1008000026B5A89B05C02F3F19F00196A11DB11D6B
:100810003FBFBA2FA92F982F8827820F911DA11DA6
:10082000B11DBC01CD0142E0660F771F881F991FE3
:100830004A95D1F708952FB7F8946091C20270914C
:10084000C3028091C4029091C5022FBF08951F92E8
:100850000F920FB60F9211242F933F938F939F9374
:10086000AF93BF938091C2029091C302A091C40242
:10087000B091C5023091C10223E0230F2D3720F43F
:100880000196A11DB11D05C026E8230F0296A11DEA
:10089000B11D2093C1028093C2029093C302A09322
:1008A000C402B093C5028091C6029091C702A09184
:1008B000C802B091C9020196A11DB11D8093C60264
:1008C0009093C702A093C802B093C902BF91AF91A1
:1008D0009F918F913F912F910F900FBE0F901F907E
:1008E000189508958EBD00000DB407FEFDCF8EB59E
:1008F00008958CBD9DBD08951F93CF93DF93EC01A8
:10090000162F83E590E0F5DF60E08E8540DF812FD4
:100910008068E8DF80E0E6DF182F61E08E8537DF52
:10092000812FDF91CF911F910895EF92FF921F9336
:10093000CF93DF931F92CDB7DEB77C01162F83E5EF
:1009400090E04983D6DF60E0F701868520DF812FC4
:10095000C9DF4981842FC6DF61E0F70186850F90EA
:10096000DF91CF911F91FF90EF9011CFCF92DF9247
:10097000EF92FF920F931F93CF93DF93EC016B01E4
:10098000142F790140E062E0D0DF44E06AE0CE015C
:10099000CCDF40E864E1CE01C8DFA601612FCE01C3
:1009A0004AD443E062E0CE01C0DF08E813E16AE028
:1009B000CE01A2DF82FF10C040E062E0CE01B5DFD1
:1009C00064E4CE0199DFF701808362E4CE0194DF15
:1009D000F701818380E004C00150110941F783E0F1
:1009E000DF91CF911F910F91FF90EF90DF90CF900B
:1009F00008953F924F925F926F927F928F929F9253
:100A0000AF92BF92CF92DF92EF92FF920F931F931C
:100A1000CF93DF931F921F92CDB7DEB73C01162F05
:100A2000942E2901A114B10419F0F501408101C0EF
:100A300040E0342EF0E18F9E300C112440E062E063
:100A4000C30173DF4FE768E0C3016FDF40E864E193
:100A5000C3016BDFA201602FC301EDD3432D6AE117
:100A6000C30163DF412F62E0C3015FDF1C3041F44B
:100A70006AE1C30141DF482F40686AE1C30155DFE5
:100A800000ED17E068E0C30137DF982F992139F4B2
:100A900080FD03C001501109A9F783E097C06CE005
:100AA000C3012ADF982E837109F08FC0E114F1048D
:100AB00009F451C0C114D10409F44DC064E1C3016B
:100AC0001BDF182FF6018081811708F478C010838E
:100AD0001123B9F183E590E00CDF60E0F301868536
:100AE00056DE82E9FFDE882099F08FEF90E02C013E
:100AF00001C0440C8A94EAF782E9F4DE8421409430
:100B0000F70190814922482A40828824839401C0B9
:100B1000812C55245A94510E282D30E08701020F64
:100B2000131F851430F482E9DDDEF801808383949D
:100B3000F3CF80E0D7DEF801808361E0F3018685A2
:100B400026DE68E1C301D8DE8770A114B10421F06C
:100B5000F501808301C080E093FC33C0E114F1040F
:100B600091F1C114D10479F19F89992361F1F601C2
:100B70004081413019F4843019F41FC0423010F420
:100B800087E024C08111FCCF42509E012F5F3F4F70
:100B9000B701C301EBDE811119C0F6018081E80EB7
:100BA000F11CF7013297908189819813E9CF319632
:100BB00090818A819813E4CF06C08FEF07C084E04C
:100BC00005C082E003C080E001C081E00F900F907B
:100BD000DF91CF911F910F91FF90EF90DF90CF9019
:100BE000BF90AF909F908F907F906F905F904F904D
:100BF0003F900895EF92FF921F93CF93DF931F9240
:100C0000CDB7DEB77C01162F498376DE498140954A
:100C10004823612FC7010F90DF91CF911F91FF9063
:100C2000EF9083CE6F927F928F92AF92BF92CF92CE
:100C3000DF92EF92FF920F93CF93DF9300D01F923A
:100C40001F92CDB7DEB73C0182E08D8340E064E2C5
:100C5000C3016BDE40E066E2C30167DE46E268E4A2
:100C6000C30163DE86E28C838D81823010F140E81F
:100C70006CE1C301BFDF87E08B831F92812CCE0123
:100C800003965C0102966C0104977C0101E09E01D1
:100C90002C5F3F4F40E36CE0C301ABDE0F9081114E
:100CA0000BC08D81823039F481E09B81911104C0A9
:100CB00008C084E001C081E091E0823019F090E04A
:100CC00001C091E0892F0F900F900F900F900F901F
:100CD000DF91CF910F91FF90EF90DF90CF90BF9079
:100CE000AF908F907F906F9008952F923F924F9288
:100CF0005F926F927F928F929F92AF92BF92CF92AC
:100D0000DF92EF92FF920F931F93CF93DF93CDB7B4
:100D1000DEB72D970FB6F894DEBF0FBECDBF4135BD
:100D200008F006C14C872B013C0140E86CE162DF12
:100D300051E0523091F05330F1F0513009F0FCC0E5
:100D400083E989832C852223D9F081E0F201908107
:100D5000953008F480E0912C18C085E98983FC85E2
:100D6000FF2381F081E0F2019081983008F480E067
:100D700043E0942E0AC087E9898336E0932E04C0AD
:100D8000912C02C023E0922E80E01C85F8EF9F9EFC
:100D9000100D112417FD10E0882321F098E89B83A3
:100DA00043E001C042E021E0912F977009F420E078
:100DB000912F959595959595290F29F4882309F4F8
:100DC00095C0185F93C0811102C094E001C093E008
:100DD000291708F4922F20E030E0692D70E0E42F0D
:100DE000E20FA1E0B0E0AC0FBD1FAE0FB11DF901E5
:100DF000E60FF71FE40DF51DE181EC932F5F3F4FE8
:100E0000291768F3DBCF8111E4C010320CF096C0D3
:100E100010E220E72A839C818B8189279D81892785
:100E20009E8189278F839E01285F3F4F47E0BE0147
:100E30006F5F7F4FC3015D8799DD5D858111C9C0FB
:100E40001B8633E03A87CE0107961C0109E08B84AC
:100E5000482D4295407F480D6AE1C3015D8765DDFD
:100E60001F929E01255F3F4F5901CE010A966C01EA
:100E700071012A50310940E36CE0C301BADD0F90E3
:100E80005D85823009F0BFCF6CE1C30135DD5D8542
:100E900085FD50C08F7109F480E2282F30E0612F6A
:100EA000110F770B621773070CF046C0182FC9019A
:100EB00001978770992725952595259531E0320F63
:100EC00021E0009709F420E0230FE1E0F0E0EC0FCF
:100ED000FD1FE20FF11D21E030E002C0220F331FA1
:100EE0008A95E2F7C9019081892B808310320CF03A
:100EF00090CF912F97709B87212F2595259525952C
:100F000082E0820F392FE0E18E9F300D11243A8369
:100F100001E0911101C000E0080F22242394312C3C
:100F20002C0E3D1E280E311C87E0821B8A878FCF36
:100F300086E04FC082E04DC085E04BC08B81883891
:100F400009F044C033E023E080E090E0692D70E0D8
:100F5000FC01E60FF71FE40DF51D432F480FA1E03C
:100F6000B0E0AC0FBD1FA40FB11D4C9141830196A1
:100F7000821770F38A85833029F58B85811122C011
:100F80009E012D5F3F4F41E0B101C3015D87EEDC63
:100F90005D8581111EC09B81F1018181981314C070
:100FA0009C818281981310C0808182FF02C05F5FA4
:100FB000C0CEF2018387852F880F580F5F5F508363
:100FC00080E007C081E005C087E003C032E024E094
:100FD000BBCF2D960FB6F894DEBF0FBECDBFDF910D
:100FE000CF911F910F91FF90EF90DF90CF90BF9026
:100FF000AF909F908F907F906F905F904F903F90B9
:101000002F900895EF92FF920F931F93CF93DF934A
:10101000162F082FEC018C2F801B8117B8F47E014E
:101020008881803118F066EB72E002C063EB72E0F9
:101030008AEC92E036D12196F701408150E060E0E1
:1010400070E020E18AEC92E041D1E5CFDF91CF91D1
:101050001F910F91FF90EF900895CF92DF92EF9242
:10106000FF920F931F93CF93DF936C017A018B0153
:10107000C0E0D0E0CE15DF0589F0D8016D918D017B
:10108000D601ED91FC910190F081E02DC6011995FA
:10109000892B11F47E0102C02196ECCFC701DF91AC
:1010A000CF911F910F91FF90EF90DF90CF90089517
:1010B0005FD5EAECF2E0A089B18982E08C93A48547
:1010C000B5851C92A685B7858FEC8C93108EA4896C
:1010D000B58986E08C93A289B3898C9180618C93C9
:1010E000A289B3898C9188608C93A289B3898C91F1
:1010F00080688C930288F389E02D80818F7D8083C6
:1011000008950F931F93CF93DF938C01C0E0D0E03D
:10111000F801EC0FFD1F6491662371F0E091CA02A3
:10112000F091CB020190F081E02D8AEC92E01995CC
:10113000892B11F02196ECCFCE01DF91CF911F9139
:101140000F9108958F929F92AF92BF92CF92DF92AC
:10115000EF92FF924BDB4B015C0182E3C82ED12C56
:10116000E12CF12C43DBDC01CB0188199909AA0998
:10117000BB09883E9340A105B10558F021E0C21A91
:10118000D108E108F10888EE880E83E0981EA11CC2
:10119000B11CC114D104E104F10421F7FF90EF90D8
:1011A000DF90CF90BF90AF909F908F90089590E088
:1011B000FC01E65BFC4F2491FC01EC5FFC4F849149
:1011C000882399F090E0880F991FFC01E651FD4FAC
:1011D000A591B491FC01E053FD4F859194918FB797
:1011E000F894EC91E22BEC938FBF08958F929F922D
:1011F000AF92BF92CF92DF92EF92FF926B017C0190
:101200001ADB4B015C01C60ED71EE81EF91E13DB6C
:10121000681579058A059B0528F0C616D706E806E5
:10122000F906A8F7FF90EF90DF90CF90BF90AF90B6
:101230009F908F900895CF92DF92EF92FF920F933D
:101240001F93CF93DF931F921F92CDB7DEB78C0110
:10125000F62E83E590E049835A834BDB60E0F8018A
:10126000868595DA82E13EDB4981E42EC42E5A81DF
:10127000D52E8C2D8E198F1528F4F60181916F01D2
:1012800031DBF7CF61E0F801868581DA0F900F90AE
:10129000DF91CF911F910F91FF90EF90DF90CF9052
:1012A00020CB6115710579F0FB0101900020E9F771
:1012B0003197AF01461B570BDC01ED91FC91028089
:1012C000F381E02D199480E090E008954F925F92B1
:1012D0006F927F92EF92FF920F931F93CF93DF93C2
:1012E000CDB7DEB7A1970FB6F894DEBF0FBECDBF66
:1012F0007C01FA01CB0119A2223008F42AE08E0108
:101300000F5D1F4F422E512C612C712CBF01A30188
:10131000920104D4F901CA01015011096A3014F490
:10132000605D01C0695CD8016C93232B242B252BB5
:1013300069F7B801C701B5DFA1960FB6F894DEBF13
:101340000FBECDBFDF91CF911F910F91FF90EF9016
:101350007F906F905F904F9008956CE972E0A1CFFD
:10136000CF93DF93CDB7DEB76E970FB6F894DEBF9D
:101370000FBECDBF789484B5826084BD84B5816092
:1013800084BD85B5826085BD85B5816085BD809150
:101390006E00816080936E001092810080918100C8
:1013A00082608093810080918100816080938100C0
:1013B000809180008160809380008091B100846082
:1013C0008093B1008091B00081608093B0008091E3
:1013D0009100826080939100809191008160809360
:1013E0009100809190008160809390008091A10095
:1013F00082608093A1008091A10081608093A10010
:101400008091A00081608093A00080912101826082
:10141000809321018091210181608093210180913D
:10142000200181608093200180917A008460809304
:101430007A0080917A00826080937A0080917A00AD
:10144000816080937A0080917A00806880937A002E
:101450001092C1001092AB031092AC031092AD0336
:101460001092AE031092690310926A0310926B03FC
:1014700010926C0368EB7BE080E090E0B7DE8AECD2
:1014800092E09093AA038093A90313DED4D96093CA
:10149000690370936A0380936B0390936C036DE808
:1014A00072E08091A9039091AA03FBDE6AE070E0EC
:1014B00080E090E09BDE81E080937D03FADD1FB742
:1014C000F8948091B802811120C0E9E3F3E084919F
:1014D000EFE7F3E09491E82FF0E0EE0FFF1FE65105
:1014E000FD4FA591B491EC91E92319F461E085E3F6
:1014F0004ED985E35CDE8CB580618CBD8CB5806493
:101500008CBD84E354DE83E352DE8091B8028F5FAA
:101510008093B8021FBF8091BD0349DE61E08091D6
:10152000BD0335D98091BE038F3F39F44FE062E0AF
:101530008FEA93E0FAD906DE22C039DE2091BE039D
:1015400030E0F901EE5DFE4F8491F901E65BFC4F5E
:101550009490F901EC5FFC4F1491112309F48EC2B1
:101560008111BFD8E12FF0E0EE0FFF1FE85FFE4FC3
:10157000A591B491EC91E92109F480C2D7CF62E042
:101580008FEA93E0B9D984FDFACF40E064E28FEAB4
:1015900093E0CBD940E066E28FEA93E0C6D946E219
:1015A00068E48FEA93E0C1D940E864E58FEA93E00C
:1015B000BCD949EA66E58FEA93E0B7D943E068E52C
:1015C0008FEA93E0B2D948EE6AE58FEA93E0ADD9AD
:1015D00040E46AE28FEA93E0A8D94DE362E28FEA41
:1015E00093E0A3D968E28FEA93E086D9982F9370AD
:1015F000933031F0482F436068E28FEA93E095D949
:1016000088E691E07EDD8AEC92E0A7DE3E0123E1F0
:10161000620E711C1E013DE0230E311C0CD9672B9C
:10162000682B692B39F407D9623071058105910562
:1016300008F4FAC000D96093BD027093BE02809393
:10164000BF029093C0028090B9029090BA02A0901D
:10165000BB02B090BC02681579058A059B0540F471
:101660006093B9027093BA028093BB029093BC025C
:101670008090B9029090BA02A090BB02B090BC02D8
:101680009B01AC01281939094A095B0949015A0132
:101690003AEF83169104A104B10408F4C5C0609325
:1016A000B9027093BA028093BB029093BC0284EF9C
:1016B00091E0A0E0B0E08093750390937603A0934F
:1016C0007703B09378031092790310927A03109203
:1016D0007B0310927C0380916D0390916E03A09127
:1016E0006F03B09170038093710390937203A09382
:1016F0007303B09374039FD860936D0370936E036C
:1017000080936F039093700396D8609369037093EE
:101710006A0380936B0390936C038DD84B015C013B
:101720006FE972E08091A9039091AA03BADD2AE0E3
:1017300041E050E060E070E08091A9039091AA033D
:10174000C5DD66EA72E08091A9039091AA03A9DD44
:101750002AE0B501A4018091A9039091AA03B6DD06
:1017600068EA72E08091A9039091AA039ADD8091C2
:101770006D0390916E03A0916F03B0917003B5015A
:10178000A401481B590B6A0B7B0B2AE08091A9032B
:101790009091AA039BDD68EA72E08091A903909181
:1017A000AA037FDD40916D0350916E0360916F033A
:1017B000709170038091710390917203A0917303F3
:1017C000B0917403481B590B6A0B7B0B2AE0809184
:1017D000A9039091AA037ADD6AEA72E08091A903D5
:1017E0009091AA035EDD27D8AB01BC012AE080916D
:1017F000A9039091AA036ADDA090A903B090AA035F
:101800006CEA72E0C5014DDDC501A7DD62E070E064
:1018100080E090E0EBDC0FD860936D0370936E0373
:1018200080936F03909370038FEA93E0FBD9882332
:1018300009F421C18FEA93E00E944203882309F44E
:101840001AC186EC92E05DDC6091B10382EB93E01B
:10185000D9DB8AEC92E081DD8AEB92E052DCE09108
:10186000BC03EF77E134B8F5F0E0E050FE4F808143
:10187000853029F168F48230E1F018F4813071F19B
:101880002AC08330C9F0843031F581E392E028C06A
:101890008830D9F038F48630A9F08730E1F488EF49
:1018A00091E01EC08930A1F08F3FA9F487EB91E051
:1018B00017C083E592E014C08CE392E011C086E289
:1018C00092E00EC084E092E00BC089EE91E008C087
:1018D0008AED91E005C08AEA91E002C08BE792E0D0
:1018E00010DC8AEC92E039DD81E4482E82E0582E4B
:1018F00018E096E0960D9E8FF30180E090E0D20113
:10190000A80FB91F2C912193019686309105B9F744
:101910008FEA93E087D9882309F4A7C08FEA93E080
:101920000E944203882309F4A0C080E689831A82BA
:10193000DE011396F30181918D932E8D2E13FBCF33
:10194000E091B103F0E0E255FC4FDE011996819180
:101950008D93A215B305D9F71F92812CA12CB12C20
:10196000C12CD12CE12CF12C0CE09E012F5F3F4FBC
:1019700040E16EE08FEA93E03CD80F90811175C092
:1019800082E18D8F80E389831A829E012D5F3F4F14
:1019900042E0BE016F5F7F4F8FEA93E00E94B60482
:1019A000882311F0912C34C081E08F93812CA12CDD
:1019B000B12CAE01435E5F4F6A01CE0101967C01FE
:1019C00004E09C0140E36CE08FEA93E012D80F90B2
:1019D0008111E8CF88EA92E094DB66E0C30112DB74
:1019E0008AEC92E0BADC81EA92E08BDB2AE040E00C
:1019F00050E0BA018AEC92E069DC8FE992E081DB89
:101A000060E1C701FFDA8AEC92E0A7DC99249394A5
:101A10008AEC92E0A2DC80E5898F1A8E9E01255E19
:101A20003F4F42E0BE01675E7F4F8FEA93E00E9426
:101A3000B604811113C01F92812CA12CB12CC12C92
:101A4000D12CE12CF12C04E09E01275E3F4F40E3B6
:101A50006CE08FEA93E00E94F9040F9048E060E1A7
:101A60008FEA93E0C7D8911006C0115096E0490E56
:101A7000511C111141CF0E940A03D0CD61E0809129
:101A8000BE030E94C7035EDB80CDEAECF2E0138266
:101A9000128288EE93E0A0E0B0E084839583A68371
:101AA000B78385E792E09183808385EC90E095870A
:101AB000848784EC90E09787868780EC90E0918B18
:101AC000808B81EC90E0938B828B82EC90E0958B05
:101AD000848B86EC90E0978B868B118E128E138E02
:101AE000148EE7E6F3E016821782108611861286BE
:101AF00013861486158616861786108A118A128A0E
:101B0000138A148A158AEFEAF3E087E892E091835A
:101B1000808385E3868785E087870895A1E21A2E72
:101B2000AA1BBB1BFD010DC0AA1FBB1FEE1FFF1F81
:101B3000A217B307E407F50720F0A21BB30BE40BD1
:101B4000F50B661F771F881F991F1A9469F7609518
:101B50007095809590959B01AC01BD01CF010895D2
:101B6000EE0FFF1F881F8BBF0790F691E02D199491
:0C1B700081E090E0F89400C0F894FFCFF2
:101B7C0006090000FF000000040300000000000044
:101B8C000707000000000000050000000000000036
:101B9C000100000000000000000000000000000038
:101BAC000000000000000000000000000000000029
:101BBC0002FFFFFFFFFFFFA0A1A2A3A4A5B0B1B23B
:101BCC00B3B4B54D3A99C351DD1A982C7E459AD3CE
:101BDC00F7D3F7D3F7AABBCCDDEEFF000000000073
:101BEC00000000000038022D08FE017E02FE020DEE
:101BFC0002210200000000750612064203564D44F5
:101C0C0050565F317C315F564D4450560D0A00568C
:101C1C004D4450455F003A323A007C005F564D44CB
:081C2C005045002030002000AB
:00000001FF
