:10000000C8C10000F6C10000F4C10000F2C1000048
:10001000F0C10000EEC10000ECC10000EAC1000028
:10002000E8C10000E6C10000E4C10000E2C1000038
:10003000E0C10000DEC10000DCC10000DAC1000048
:10004000D8C10000D6C10000D4C10000D2C1000058
:10005000D0C10000CEC10000CCC10000F8C3000038
:10006000C8C1000095C200006AC20000C2C1000001
:10007000C0C10000BEC10000BCC10000BAC1000088
:10008000B8C10000B6C10000B4C10000B2C1000098
:10009000B0C10000AEC10000ACC10000AAC10000A8
:1000A000A8C10000A6C10000A4C10000A2C10000B8
:1000B000A0C100009EC100009CC100009AC10000C8
:1000C00098C1000096C1000094C1000092C10000D8
:1000D00090C100008EC100008CC100008AC10000E8
:1000E00088C100008C038F037E0382038803C6034C
:1000F000930397039D03A103A503AB03AF03B303CE
:10010000C603B903BD03C10300002000230026007D
:1001100029002C002F00320000010000030106011D
:10012000090100000A0B02090C0D0E080703040167
:1001300000000000000000000000000000000000BF
:10014000000000000000000000000000000012118C
:10015000100000000000000000000000000000008F
:1001600000000000000000005472792074686520CF
:100170006D6F737420757365642064656661756C5A
:1001800074206B65797320746F207072696E7420AF
:10019000626C6F636B2030206F662061204D494692
:1001A00041524520504943432E00556E6B6E6F7788
:1001B0006E20747970650053414B20696E646963E9
:1001C0006174657320554944206973206E6F7420F3
:1001D000636F6D706C6574652E004D4946415245E4
:1001E00020544E5033585858004D494641524520EE
:1001F00044455346697265004D4946415245205079
:100200006C7573004D494641524520556C747261BE
:100210006C69676874206F7220556C7472616C69C8
:100220006768742043004D494641524520344B4293
:10023000004D494641524520314B42004D4946410F
:100240005245204D696E692C20333230206279741A
:100250006573005049434320636F6D706C69616E34
:100260007420776974682049534F2F4945432031E2
:100270003830393220284E46432900504943432024
:10028000636F6D706C69616E742077697468204962
:10029000534F2F4945432031343434332D34003A01
:1002A00000426C6F636B200053756363657373204A
:1002B00077697468206B65793A005049434320742C
:1002C0007970653A200043617264205549443A00D0
:1002D00000002200250028002B002E0031003400F1
:1002E00002010000050108010B01000021002400AB
:1002F00027002A002D003000330001010000040116
:1003000007010A0105050505070508080808020296
:1003100002020A0A0808040404040101010101019F
:1003200001010303030303030303040707070C0C82
:100330000C0C0C0C0C0C0202020206060606060649
:1003400006060B0B0B0B0B0B0B0B010210202008EE
:100350000810204010204080020102010804020120
:10036000010204081020408080402010080402018F
:1003700080040201804020100804020108040201E8
:10038000010204081020408001020408102040806F
:10039000450D11241FBECFEFD1E2DEBFCDBF00E07F
:1003A0000CBF23E0A8EBB2E001C01D92AF3BB20747
:1003B000E1F712E0A0E0B2E0ECE7FBE100E00BBF08
:1003C00002C007900D92A83BB107D9F711E0C9EC24
:1003D000D1E000E006C021970109802FFE010E94B4
:1003E000B00DC83CD10780E00807A9F7B9D70C9435
:1003F000BC0D06CE089580E090E00895FC01538D79
:10040000448D252F30E0842F90E0821B930B5417EE
:1004100010F0CF96089501970895FC01918D828D7B
:10042000981761F0828DDF01A80FB11D5D968C9148
:10043000928D9F5F9F73928F90E008958FEF9FEF53
:100440000895FC01918D828D981731F0828DE80F0F
:10045000F11D858D90E008958FEF9FEF08958AEC50
:1004600092E0CCD021E0892B09F420E0822F08957E
:10047000EF92FF920F931F93CF93DF93EC0181E0F4
:10048000888F9B8D8C8D981305C0E889F9898081B0
:1004900085FD23C0F62E0B8D10E00F5F1F4F0F73ED
:1004A0001127E02E8C8DE8120BC00FB607FCFACF97
:1004B000E889F989808185FFF5CFCE01F1D0F2CFAF
:1004C0008B8DFE01E80FF11DE35AFF4FF0820B8F79
:1004D000EA89FB898081806207C0EE89FF89608399
:1004E000E889F98980818064808381E090E0DF91F0
:1004F000CF911F910F91FF90EF900895CF93DF93CD
:10050000EC01888D8823C1F0EA89FB89808185FD13
:1005100005C0A889B9898C9186FD0EC00FB607FC6D
:10052000F5CF808185FFF2CFA889B9898C9185FFAD
:10053000EDCFCE01B5D0E8CFDF91CF9108951F92D6
:100540000F920FB60F9211240BB60F922F933F9379
:100550004F935F936F937F938F939F93AF93BF93CB
:10056000EF93FF938AEC92E09BD0FF91EF91BF91C4
:10057000AF919F918F917F916F915F914F913F913B
:100580002F910F900BBE0F900FBE0F901F901895DC
:100590001F920F920FB60F9211240BB60F922F934A
:1005A0008F939F93EF93FF93E091DA02F091DB0238
:1005B0008081E091E002F091E10282FD12C0908121
:1005C0008091E3028F5F8F732091E402821751F0D4
:1005D000E091E302F0E0E653FD4F958F8093E30254
:1005E00001C08081FF91EF919F918F912F910F908A
:1005F0000BBE0F900FBE0F901F901895FC01918DB0
:10060000228D892F90E0805C9F4F821B91098F7310
:100610009927089580E090E0892B19F020DF81115F
:1006200025C080E090E0892B41F080E090E0892BAC
:1006300021F00E94000081111CC080E090E0892B15
:1006400041F080E090E0892B21F00E9400008111B0
:1006500013C080E090E0892BA1F080E090E0892B2E
:1006600081F00E94000081110AC008950E940000DC
:10067000D8CF0E940000E1CF0E940000EACF0C9486
:1006800000000895DC01ED91FD91BD010190F08124
:10069000E02D40E0199591E0811190E0892F0895B7
:1006A000FC01848DDF01A80FB11DA35ABF4F2C910F
:1006B000848D90E001968F739927848FA689B789DE
:1006C0002C93A089B1898C9180648C93938D848DB7
:1006D000981306C00288F389E02D80818F7D808386
:1006E000089590E0FC013197E231F10508F04EC029
:1006F0008827EE58FF4F8F4F0C94B00D80918000EB
:100700008F7703C0809180008F7D80938000089553
:1007100080918000877FF9CF84B58F7702C084B540
:100720008F7D84BD08958091B0008F7703C0809144
:10073000B0008F7D8093B0000895809190008F77F6
:1007400007C0809190008F7D03C080919000877FCB
:100750008093900008958091A0008F7707C08091CA
:10076000A0008F7D03C08091A000877F8093A000B0
:100770000895809120018F7707C0809120018F7D9F
:1007800003C080912001877F8093200108951F93EB
:10079000CF93DF93282F30E0F901EE5DFE4F849177
:1007A000F901E65BFC4FD491F901EC5FFC4FC49179
:1007B000CC23C1F0162F811194DFEC2FF0E0EE0F67
:1007C000FF1FE053FD4FA591B4918FB7F89411111D
:1007D00005C09C91ED2FE095E92302C0EC91ED2B33
:1007E000EC938FBFDF91CF911F9108953FB7F8949D
:1007F0008091C6029091C702A091C802B091C9022F
:1008000026B5A89B05C02F3F19F00196A11DB11D6B
:100810003FBFBA2FA92F982F8827820F911DA11DA6
:10082000B11DBC01CD0142E0660F771F881F991FE3
:100830004A95D1F708952FB7F8946091C20270914C
:10084000C3028091C4029091C5022FBF08951F92E8
:100850000F920FB60F9211242F933F938F939F9374
:10086000AF93BF938091C2029091C302A091C40242
:10087000B091C5023091C10223E0230F2D3720F43F
:100880000196A11DB11D05C026E8230F0296A11DEA
:10089000B11D2093C1028093C2029093C302A09322
:1008A000C402B093C5028091C6029091C702A09184
:1008B000C802B091C9020196A11DB11D8093C60264
:1008C0009093C702A093C802B093C902BF91AF91A1
:1008D0009F918F913F912F910F900FBE0F901F907E
:1008E000189508958EBD00000DB407FEFDCF8EB59E
:1008F00008958CBD9DBD08951F93CF93DF93EC01A8
:10090000162F83E590E0F5DF60E08E8540DF812FD4
:100910008068E8DF80E0E6DF182F61E08E8537DF52
:10092000812FDF91CF911F910895EF92FF921F9336
:10093000CF93DF931F92CDB7DEB77C01162F83E5EF
:1009400090E04983D6DF60E0F701868520DF812FC4
:10095000C9DF4981842FC6DF61E0F70186850F90EA
:10096000DF91CF911F91FF90EF9011CFCF92DF9247
:10097000EF92FF920F931F93CF93DF93EC016B01E4
:10098000142F790140E062E0D0DF44E06AE0CE015C
:10099000CCDF40E864E1CE01C8DFA601612FCE01C3
:1009A0004AD443E062E0CE01C0DF08E813E16AE028
:1009B000CE01A2DF82FF10C040E062E0CE01B5DFD1
:1009C00064E4CE0199DFF701808362E4CE0194DF15
:1009D000F701818380E004C00150110941F783E0F1
:1009E000DF91CF911F910F91FF90EF90DF90CF900B
:1009F00008953F924F925F926F927F928F929F9253
:100A0000AF92BF92CF92DF92EF92FF920F931F931C
:100A1000CF93DF931F921F92CDB7DEB73C01162F05
:100A2000942E2901A114B10419F0F501408101C0EF
:100A300040E0342EF0E18F9E300C112440E062E063
:100A4000C30173DF4FE768E0C3016FDF40E864E193
:100A5000C3016BDFA201602FC301EDD3432D6AE117
:100A6000C30163DF412F62E0C3015FDF1C3041F44B
:100A70006AE1C30141DF482F40686AE1C30155DFE5
:100A800000ED17E068E0C30137DF982F992139F4B2
:100A900080FD03C001501109A9F783E097C06CE005
:100AA000C3012ADF982E837109F08FC0E114F1048D
:100AB00009F451C0C114D10409F44DC064E1C3016B
:100AC0001BDF182FF6018081811708F478C010838E
:100AD0001123B9F183E590E00CDF60E0F301868536
:100AE00056DE82E9FFDE882099F08FEF90E02C013E
:100AF00001C0440C8A94EAF782E9F4DE8421409430
:100B0000F70190814922482A40828824839401C0B9
:100B1000812C55245A94510E282D30E08701020F64
:100B2000131F851430F482E9DDDEF801808383949D
:100B3000F3CF80E0D7DEF801808361E0F3018685A2
:100B400026DE68E1C301D8DE8770A114B10421F06C
:100B5000F501808301C080E093FC33C0E114F1040F
:100B600091F1C114D10479F19F89992361F1F601C2
:100B70004081413019F4843019F41FC0423010F420
:100B800087E024C08111FCCF42509E012F5F3F4F70
:100B9000B701C301EBDE811119C0F6018081E80EB7
:100BA000F11CF7013297908189819813E9CF319632
:100BB00090818A819813E4CF06C08FEF07C084E04C
:100BC00005C082E003C080E001C081E00F900F907B
:100BD000DF91CF911F910F91FF90EF90DF90CF9019
:100BE000BF90AF909F908F907F906F905F904F904D
:100BF0003F900895EF92FF921F93CF93DF931F9240
:100C0000CDB7DEB77C01162F498376DE498140954A
:100C10004823612FC7010F90DF91CF911F91FF9063
:100C2000EF9083CE6F927F928F92AF92BF92CF92CE
:100C3000DF92EF92FF920F93CF93DF9300D01F923A
:100C40001F92CDB7DEB73C0182E08D8340E064E2C5
:100C5000C3016BDE40E066E2C30167DE46E268E4A2
:100C6000C30163DE86E28C838D81823010F140E81F
:100C70006CE1C301BFDF87E08B831F92812CCE0123
:100C800003965C0102966C0104977C0101E09E01D1
:100C90002C5F3F4F40E36CE0C301ABDE0F9081114E
:100CA0000BC08D81823039F481E09B81911104C0A9
:100CB00008C084E001C081E091E0823019F090E04A
:100CC00001C091E0892F0F900F900F900F900F901F
:100CD000DF91CF910F91FF90EF90DF90CF90BF9079
:100CE000AF908F907F906F9008952F923F924F9288
:100CF0005F926F927F928F929F92AF92BF92CF92AC
:100D0000DF92EF92FF920F931F93CF93DF93CDB7B4
:100D1000DEB72D970FB6F894DEBF0FBECDBF4135BD
:100D200008F006C14C872B013C0140E86CE162DF12
:100D300051E0523091F05330F1F0513009F0FCC0E5
:100D400083E989832C852223D9F081E0F201908107
:100D5000953008F480E0912C18C085E98983FC85E2
:100D6000FF2381F081E0F2019081983008F480E067
:100D700043E0942E0AC087E9898336E0932E04C0AD
:100D8000912C02C023E0922E80E01C85F8EF9F9EFC
:100D9000100D112417FD10E0882321F098E89B83A3
:100DA00043E001C042E021E0912F977009F420E078
:100DB000912F959595959595290F29F4882309F4F8
:100DC00095C0185F93C0811102C094E001C093E008
:100DD000291708F4922F20E030E0692D70E0E42F0D
:100DE000E20FA1E0B0E0AC0FBD1FAE0FB11DF901E5
:100DF000E60FF71FE40DF51DE181EC932F5F3F4FE8
:100E0000291768F3DBCF8111E4C010320CF096C0D3
:100E100010E220E72A839C818B8189279D81892785
:100E20009E8189278F839E01285F3F4F47E0BE0147
:100E30006F5F7F4FC3015D8799DD5D858111C9C0FB
:100E40001B8633E03A87CE0107961C0109E08B84AC
:100E5000482D4295407F480D6AE1C3015D8765DDFD
:100E60001F929E01255F3F4F5901CE010A966C01EA
:100E700071012A50310940E36CE0C301BADD0F90E3
:100E80005D85823009F0BFCF6CE1C30135DD5D8542
:100E900085FD50C08F7109F480E2282F30E0612F6A
:100EA000110F770B621773070CF046C0182FC9019A
:100EB00001978770992725952595259531E0320F63
:100EC00021E0009709F420E0230FE1E0F0E0EC0FCF
:100ED000FD1FE20FF11D21E030E002C0220F331FA1
:100EE0008A95E2F7C9019081892B808310320CF03A
:100EF00090CF912F97709B87212F2595259525952C
:100F000082E0820F392FE0E18E9F300D11243A8369
:100F100001E0911101C000E0080F22242394312C3C
:100F20002C0E3D1E280E311C87E0821B8A878FCF36
:100F300086E04FC082E04DC085E04BC08B81883891
:100F400009F044C033E023E080E090E0692D70E0D8
:100F5000FC01E60FF71FE40DF51D432F480FA1E03C
:100F6000B0E0AC0FBD1FA40FB11D4C9141830196A1
:100F7000821770F38A85833029F58B85811122C011
:100F80009E012D5F3F4F41E0B101C3015D87EEDC63
:100F90005D8581111EC09B81F1018181981314C070
:100FA0009C818281981310C0808182FF02C05F5FA4
:100FB000C0CEF2018387852F880F580F5F5F508363
:100FC00080E007C081E005C087E003C032E024E094
:100FD000BBCF2D960FB6F894DEBF0FBECDBFDF910D
:100FE000CF911F910F91FF90EF90DF90CF90BF9026
:100FF000AF909F908F907F906F905F904F903F90B9
:101000002F900895EF92FF920F931F93CF93DF934A
:10101000162F082FEC018C2F801B8117B8F47E014E
:101020008881803118F066EB72E002C063EB72E0F9
:101030008AEC92E036D12196F701408150E060E0E1
:1010400070E020E18AEC92E041D1E5CFDF91CF91D1
:101050001F910F91FF90EF900895CF92DF92EF9242
:10106000FF920F931F93CF93DF936C017A018B0153
:10107000C0E0D0E0CE15DF0589F0D8016D918D017B
:10108000D601ED91FC910190F081E02DC6011995FA
:10109000892B11F47E0102C02196ECCFC701DF91AC
:1010A000CF911F910F91FF90EF90DF90CF90089517
:1010B0005FD5EAECF2E0A089B18982E08C93A48547
:1010C000B5851C92A685B7858FEC8C93108EA4896C
:1010D000B58986E08C93A289B3898C9180618C93C9
:1010E000A289B3898C9188608C93A289B3898C91F1
:1010F00080688C930288F389E02D80818F7D8083C6
:1011000008950F931F93CF93DF938C01C0E0D0E03D
:10111000F801EC0FFD1F6491662371F0E091CA02A3
:10112000F091CB020190F081E02D8AEC92E01995CC
:10113000892B11F02196ECCFCE01DF91CF911F9139
:101140000F9108958F929F92AF92BF92CF92DF92AC
:10115000EF92FF924BDB4B015C0182E3C82ED12C56
:10116000E12CF12C43DBDC01CB0188199909AA0998
:10117000BB09883E9340A105B10558F021E0C21A91
:10118000D108E108F10888EE880E83E0981EA11CC2
:10119000B11CC114D104E104F10421F7FF90EF90D8
:1011A000DF90CF90BF90AF909F908F90089590E088
:1011B000FC01E65BFC4F2491FC01EC5FFC4F849149
:1011C000882399F090E0880F991FFC01E651FD4FAC
:1011D000A591B491FC01E053FD4F859194918FB797
:1011E000F894EC91E22BEC938FBF08958F929F922D
:1011F000AF92BF92CF92DF92EF92FF926B017C0190
:101200001ADB4B015C01C60ED71EE81EF91E13DB6C
:10121000681579058A059B0528F0C616D706E806E5
:10122000F906A8F7FF90EF90DF90CF90BF90AF90B6
:101230009F908F900895CF92DF92EF92FF920F933D
:101240001F93CF93DF931F921F92CDB7DEB78C0110
:10125000F62E83E590E049835A834BDB60E0F8018A
:10126000868595DA82E13EDB4981E42EC42E5A81DF
:10127000D52E8C2D8E198F1528F4F60181916F01D2
:1012800031DBF7CF61E0F801868581DA0F900F90AE
:10129000DF91CF911F910F91FF90EF90DF90CF9052
:1012A00020CB6115710579F0FB0101900020E9F771
:1012B0003197AF01461B570BDC01ED91FC91028089
:1012C000F381E02D199480E090E008954F925F92B1
:1012D0006F927F92EF92FF920F931F93CF93DF93C2
:1012E000CDB7DEB7A1970FB6F894DEBF0FBECDBF66
:1012F0007C01FA01CB0119A2223008F42AE08E0108
:101300000F5D1F4F422E512C612C712CBF01A30188
:10131000920104D4F901CA01015011096A3014F490
:10132000605D01C0695CD8016C93232B242B252BB5
:1013300069F7B801C701B5DFA1960FB6F894DEBF13
:101340000FBECDBFDF91CF911F910F91FF90EF9016
:101350007F906F905F904F9008956CE972E0A1CFFD
:10136000CF93DF93CDB7DEB76E970FB6F894DEBF9D
:101370000FBECDBF789484B5826084BD84B5816092
:1013800084BD85B5826085BD85B5816085BD809150
:101390006E00816080936E001092810080918100C8
:1013A00082608093810080918100816080938100C0
:1013B000809180008160809380008091B100846082
:1013C0008093B1008091B00081608093B0008091E3
:1013D0009100826080939100809191008160809360
:1013E0009100809190008160809390008091A10095
:1013F00082608093A1008091A10081608093A10010
:101400008091A00081608093A00080912101826082
:10141000809321018091210181608093210180913D
:10142000200181608093200180917A008460809304
:101430007A0080917A00826080937A0080917A00AD
:10144000816080937A0080917A00806880937A002E
:101450001092C1001092AB031092AC031092AD0336
:101460001092AE031092690310926A0310926B03FC
:1014700010926C0368EB7BE080E090E0B7DE8AECD2
:1014800092E09093AA038093A90313DED4D96093CA
:10149000690370936A0380936B0390936C036DE808
:1014A00072E08091A9039091AA03FBDE6AE070E0EC
:1014B00080E090E09BDE81E080937D03FADD1FB742
:1014C000F8948091B802811120C0E9E3F3E084919F
:1014D000EFE7F3E09491E82FF0E0EE0FFF1FE65105
:1014E000FD4FA591B491EC91E92319F461E085E3F6
:1014F0004ED985E35CDE8CB580618CBD8CB5806493
:101500008CBD84E354DE83E352DE8091B8028F5FAA
:101510008093B8021FBF8091BD0349DE61E08091D6
:10152000BD0335D98091BE038F3F39F44FE062E0AF
:101530008FEA93E0FAD906DE22C039DE2091BE039D
:1015400030E0F901EE5DFE4F8491F901E65BFC4F5E
:101550009490F901EC5FFC4F1491112309F48EC2B1
:101560008111BFD8E12FF0E0EE0FFF1FE85FFE4FC3
:10157000A591B491EC91E92109F480C2D7CF62E042
:101580008FEA93E0B9D984FDFACF40E064E28FEAB4
:1015900093E0CBD940E066E28FEA93E0C6D946E219
:1015A00068E48FEA93E0C1D940E864E58FEA93E00C
:1015B000BCD949EA66E58FEA93E0B7D943E068E52C
:1015C0008FEA93E0B2D948EE6AE58FEA93E0ADD9AD
:1015D00040E46AE28FEA93E0A8D94DE362E28FEA41
:1015E00093E0A3D968E28FEA93E086D9982F9370AD
:1015F000933031F0482F436068E28FEA93E095D949
:1016000088E691E07EDD8AEC92E0A7DE3E0123E1F0
:10161000620E711C1E013DE0230E311C0CD9672B9C
:10162000682B692B39F407D9623071058105910562
:1016300008F4FAC000D96093BD027093BE02809393
:10164000BF029093C0028090B9029090BA02A0901D
:10165000BB02B090BC02681579058A059B0540F471
:101660006093B9027093BA028093BB029093BC025C
:101670008090B9029090BA02A090BB02B090BC02D8
:101680009B01AC01281939094A095B0949015A0132
:101690003AEF83169104A104B10408F4C5C0609325
:1016A000B9027093BA028093BB029093BC0284EF9C
:1016B00091E0A0E0B0E08093750390937603A0934F
:1016C0007703B09378031092790310927A03109203
:1016D0007B0310927C0380916D0390916E03A09127
:1016E0006F03B09170038093710390937203A09382
:1016F0007303B09374039FD860936D0370936E036C
:1017000080936F039093700396D8609369037093EE
:101710006A0380936B0390936C038DD84B015C013B
:101720006FE972E08091A9039091AA03BADD2AE0E3
:1017300041E050E060E070E08091A9039091AA033D
:10174000C5DD66EA72E08091A9039091AA03A9DD44
:101750002AE0B501A4018091A9039091AA03B6DD06
:1017600068EA72E08091A9039091AA039ADD8091C2
:101770006D0390916E03A0916F03B0917003B5015A
:10178000A401481B590B6A0B7B0B2AE08091A9032B
:101790009091AA039BDD68EA72E08091A903909181
:1017A000AA037FDD40916D0350916E0360916F033A
:1017B000709170038091710390917203A0917303F3
:1017C000B0917403481B590B6A0B7B0B2AE0809184
:1017D000A9039091AA037ADD6AEA72E08091A903D5
:1017E0009091AA035EDD27D8AB01BC012AE080916D
:1017F000A9039091AA036ADDA090A903B090AA035F
:101800006CEA72E0C5014DDDC501A7DD62E070E064
:1018100080E090E0EBDC0FD860936D0370936E0373
:1018200080936F03909370038FEA93E0FBD9882332
:1018300009F421C18FEA93E00E944203882309F44E
:101840001AC186EC92E05DDC6091B10382EB93E01B
:10185000D9DB8AEC92E081DD8AEB92E052DCE09108
:10186000BC03EF77E134B8F5F0E0E050FE4F808143
:10187000853029F168F48230E1F018F4813071F19B
:101880002AC08330C9F0843031F581E392E028C06A
:101890008830D9F038F48630A9F08730E1F488EF49
:1018A00091E01EC08930A1F08F3FA9F487EB91E051
:1018B00017C083E592E014C08CE392E011C086E289
:1018C00092E00EC084E092E00BC089EE91E008C087
:1018D0008AED91E005C08AEA91E002C08BE792E0D0
:1018E00010DC8AEC92E039DD81E4482E82E0582E4B
:1018F00018E096E0960D9E8FF30180E090E0D20113
:10190000A80FB91F2C912193019686309105B9F744
:101910008FEA93E087D9882309F4A7C08FEA93E080
:101920000E944203882309F4A0C080E689831A82BA
:10193000DE011396F30181918D932E8D2E13FBCF33
:10194000E091B103F0E0E255FC4FDE011996819180
:101950008D93A215B305D9F71F92812CA12CB12C20
:10196000C12CD12CE12CF12C0CE09E012F5F3F4FBC
:1019700040E16EE08FEA93E03CD80F90811175C092
:1019800082E18D8F80E389831A829E012D5F3F4F14
:1019900042E0BE016F5F7F4F8FEA93E00E94B60482
:1019A000882311F0912C34C081E08F93812CA12CDD
:1019B000B12CAE01435E5F4F6A01CE0101967C01FE
:1019C00004E09C0140E36CE08FEA93E012D80F90B2
:1019D0008111E8CF88EA92E094DB66E0C30112DB74
:1019E0008AEC92E0BADC81EA92E08BDB2AE040E00C
:1019F00050E0BA018AEC92E069DC8FE992E081DB89
:101A000060E1C701FFDA8AEC92E0A7DC99249394A5
:101A10008AEC92E0A2DC80E5898F1A8E9E01255E19
:101A20003F4F42E0BE01675E7F4F8FEA93E00E9426
:101A3000B604811113C01F92812CA12CB12CC12C92
:101A4000D12CE12CF12C04E09E01275E3F4F40E3B6
:101A50006CE08FEA93E00E94F9040F9048E060E1A7
:101A60008FEA93E0C7D8911006C0115096E0490E56
:101A7000511C111141CF0E940A03D0CD61E0809129
:101A8000BE030E94C7035EDB80CDEAECF2E0138266
:101A9000128288EE93E0A0E0B0E084839583A68371
:101AA000B78385E792E09183808385EC90E095870A
:101AB000848784EC90E09787868780EC90E0918B18
:101AC000808B81EC90E0938B828B82EC90E0958B05
:101AD000848B86EC90E0978B868B118E128E138E02
:101AE000148EE7E6F3E016821782108611861286BE
:101AF00013861486158616861786108A118A128A0E
:101B0000138A148A158AEFEAF3E087E892E091835A
:101B1000808385E3868785E087870895A1E21A2E72
:101B2000AA1BBB1BFD010DC0AA1FBB1FEE1FFF1F81
:101B3000A217B307E407F50720F0A21BB30BE40BD1
:101B4000F50B661F771F881F991F1A9469F7609518
:101B50007095809590959B01AC01BD01CF010895D2
:101B6000EE0FFF1F881F8BBF0790F691E02D199491
:0C1B700081E090E0F89400C0F894FFCFF2
:101B7C0006090000FF000000040300000000000044
:101B8C000707000000000000050000000000000036
:101B9C000100000000000000000000000000000038
:101BAC000000000000000000000000000000000029
:101BBC0002FFFFFFFFFFFFA0A1A2A3A4A5B0B1B23B
:101BCC00B3B4B54D3A99C351DD1A982C7E459AD3CE
:101BDC00F7D3F7D3F7AABBCCDDEEFF000000000073
:101BEC00000000000038022D08FE017E02FE020DEE
:101BFC0002210200000000750612064203564D44F5
:101C0C0050565F317C315F564D4450560D0A00568C
:101C1C004D4450455F003A323A007C005F564D44CB
:081C2C005045002030002000AB
:020000023000CC
:10E000000D9489F10D94B2F10D94B2F10D94B2F129
:10E010000D94B2F10D94B2F10D94B2F10D94B2F1F0
:10E020000D94B2F10D94B2F10D94B2F10D94B2F1E0
:10E030000D94B2F10D94B2F10D94B2F10D94B2F1D0
:10E040000D94B2F10D94B2F10D94B2F10D94B2F1C0
:10E050000D94B2F10D94B2F10D94B2F10D94B2F1B0
:10E060000D94B2F10D94B2F10D94B2F10D94B2F1A0
:10E070000D94B2F10D94B2F10D94B2F10D94B2F190
:10E080000D94B2F10D94B2F10D94B2F10D94B2F180
:10E090000D94B2F10D94B2F10D94B2F10D94B2F170
:10E0A0000D94B2F10D94B2F10D94B2F10D94B2F160
:10E0B0000D94B2F10D94B2F10D94B2F10D94B2F150
:10E0C0000D94B2F10D94B2F10D94B2F10D94B2F140
:10E0D0000D94B2F10D94B2F10D94B2F10D94B2F130
:10E0E0000D94B2F141546D656761323536300041AF
:10E0F000726475696E6F206578706C6F72657220DE
:10E1000073746B3530305632206279204D4C530099
:10E11000426F6F746C6F616465723E004875683F52
:10E1200000436F6D70696C6564206F6E203D200048
:10E130004350552054797065202020203D20005FF9
:10E140005F4156525F415243485F5F3D2000415658
:10E1500052204C696243205665723D20004743437C
:10E160002056657273696F6E203D20004350552024
:10E1700049442020202020203D20004C6F7720663D
:10E18000757365202020203D20004869676820665F
:10E190007573652020203D200045787420667573D6
:10E1A00065202020203D20004C6F636B2066757336
:10E1B000652020203D20004D617220203720323024
:10E1C000313300312E362E3800342E332E350056A2
:10E1D00023202020414444522020206F7020636F70
:10E1E00064652020202020696E73747275637469E1
:10E1F0006F6E2061646472202020496E74657272B3
:10E20000757074006E6F20766563746F7200726A49
:10E210006D702020006A6D70200057686174207056
:10E220006F72743A00506F7274206E6F7420737541
:10E2300070706F72746564004D7573742062652030
:10E2400061206C6574746572002000577269747483
:10E25000696E672045450052656164696E672045B7
:10E26000450045452065727220636E743D00504F35
:10E27000525400303D5A65726F2061646472003FF1
:10E280003D43505520737461747300403D454550C3
:10E29000524F4D207465737400423D426C696E6B41
:10E2A000204C454400453D44756D70204545505215
:10E2B0004F4D00463D44756D7020464C415348001B
:10E2C000483D48656C70004C3D4C69737420492F83
:10E2D0004F20506F72747300513D51756974005234
:10E2E0003D44756D702052414D00563D73686F7707
:10E2F00020696E7465727275707420566563746FF0
:10E30000727300593D506F727420626C696E6B00BD
:10E310002A0011241FBECFEFD1E2DEBFCDBF01E046
:10E320000CBF12E0A0E0B2E0EEE1FDEF03E00BBFB6
:10E3300002C007900D92A030B107D9F712E0A0E01B
:10E34000B2E001C01D92AE30B107E1F70F9460F367
:10E350000D948DFE01E20EBF0FEF0DBF11241FBE05
:10E360000D9460F30D9400F020E030E040ED57E0B4
:10E3700005C0FA013197F1F72F5F3F4F2817390792
:10E38000C0F308959C01260F311DC901A0E0B0E043
:10E390002F5F3F4FABBFFC018791882361F08093D3
:10E3A000C6008091C00086FFFCCF8091C0008064D1
:10E3B0008093C000EACF08958DE08093C6008091DD
:10E3C000C00086FFFCCF8091C00080648093C000B5
:10E3D0008AE08093C6008091C00086FFFCCF8091C8
:10E3E000C00080648093C00008950F94C2F10F9420
:10E3F000DCF10895FC019081992359F09093C600B7
:10E400008091C00086FFFCCF8091C0008064809323
:10E41000C0003196992379F70895282F982F929567
:10E420009F70892F805D8A3308F0895F8093C600D2
:10E430008091C00086FFFCCF8091C00080648093F3
:10E44000C000822F8F70982F905D9A3308F0995FEB
:10E450009093C6008091C00086FFFCCF8091C000E1
:10E4600080648093C00008959C01FB01853691056E
:10E470001CF46330710594F0C90164E670E00F94F8
:10E480002EFE605D7F4F6093C6008091C00086FFC6
:10E49000FCCF8091C00080648093C0002B30310598
:10E4A00014F43297B4F0C90164E670E00F942EFEC4
:10E4B0006AE070E00F942EFE605D7F4F6093C600AF
:10E4C0008091C00086FFFCCF8091C0008064809363
:10E4D000C000C9016AE070E00F942EFEC0968093E0
:10E4E000C6008091C00086FFFCCF8091C000806490
:10E4F0008093C00008951F93182F8EE692EE60E07F
:10E500000F94C2F11093C6008091C00086FFFCCF2B
:10E510008091C00080648093C0000F94DCF11F9153
:10E5200008952F923F924F925F926F927F928F92B7
:10E530009F92AF92BF92CF92DF92EF92FF920F9392
:10E540001F93DF93CF93CDB7DEB762970FB6F894E2
:10E55000DEBF0FBECDBF382E622ECA01DB015C01CB
:10E560006D01772420E2222E2E010894411C511CBB
:10E570008BC081E0A81680E0B80681E0C80680E084
:10E58000D80628F0C601AA27BB270F940DF2BB2797
:10E59000AD2D9C2D8B2D0F940DF28A2D0F940DF225
:10E5A0002092C6008091C00086FFFCCF8091C00001
:10E5B00080648093C0009DE29093C6008091C0006B
:10E5C00086FFFCCF8091C00080648093C0002092C1
:10E5D000C6008091C00086FFFCCF8091C00080649F
:10E5E0008093C00019828601750188249924A1E0D6
:10E5F0003A1651F03A1620F0B2E03B1661F409C029
:10E600000BBFF701779007C0C7010F9477FE782EF4
:10E6100002C0F7017080872D0F940DF22092C60082
:10E620008091C00086FFFCCF8091C0008064809301
:10E63000C000872D8052F401EF70F0708F3520F408
:10E64000E40DF51D708204C0E40DF51D8EE280839B
:10E650000894E11CF11C011D111D0894811C911CE2
:10E6600090E18916910409F0C2CF80E190E0A0E02A
:10E67000B0E0A80EB91ECA1EDB1E198AC2010F9493
:10E68000FAF10F94DCF16A94662009F072CF629679
:10E690000FB6F894DEBF0FBECDBFCF91DF911F91B3
:10E6A0000F91FF90EF90DF90CF90BF90AF909F9031
:10E6B0008F907F906F905F904F903F902F90089534
:10E6C0002F923F924F925F926F927F928F929F9282
:10E6D000AF92BF92CF92DF92EF92FF920F931F9370
:10E6E000DF93CF93CDB7DEB7CD53D1400FB6F894BB
:10E6F000DEBF0FBECDBF01E20EBF0FEF0DBF94B75F
:10E70000F894A89514BE80916000886180936000A1
:10E7100010926000789493FF05C0E0910002F091A0
:10E7200001021995279A2F9A8091C00082608093E8
:10E73000C00080E18093C40088E18093C1000000A4
:10E74000EE24FF24870144E0A42EB12CCC24DD2448
:10E7500024C0C5010197F1F70894E11CF11C011DCB
:10E76000111D21E2E2162EE4F20620E0020720E06D
:10E77000120718F031E0C32ED12CC801B70127ECE5
:10E780003BE140E050E00F9441FE611571058105C9
:10E79000910519F485B1805885B98091C00087FD35
:10E7A00003C0C114D104A9F2A6014F5F5F4FC25E3E
:10E7B000DE4F59834883CE51D140C25EDE4F8881FF
:10E7C0009981CE51D140019711F00D9410FEC05D9A
:10E7D000DE4F19821882C053D14060E0C15DDE4F28
:10E7E0001882CF52D14088249924C35DDE4F19820C
:10E7F0001882CD52D140C05EDE4F188219821A8233
:10E800001B82C052D140CE5CDE4F188219821A8220
:10E810001B82C253D140EE24FF2487010BBFF701B6
:10E8200007911691C45CDE4F19830883CC53D14005
:10E830000D940BFEC25EDE4F28813981CE51D1404E
:10E840002130310509F52091C600C25EDE4F1982E4
:10E850001882CE51D14022C02F5F3F4F4F4F5F4FA4
:10E86000213082E138078AE7480780E0580780F0C6
:10E87000C45CDE4FE881F981CC53D140EF5FFF4F9C
:10E8800019F0EE27FF27099420E030E040E050E047
:10E890008091C00087FFE0CF2091C600C35DDE4FAE
:10E8A00048815981CD52D1404F5F5F4FC35DDE4FEC
:10E8B00059834883CD52D140213209F063C64A3092
:10E8C000510508F05FC60894811C911C53E0851621
:10E8D000910409F059C600E010E018C081E280936D
:10E8E000C6008091C00086FFFCCF8091C00080648C
:10E8F0008093C0002F5F3F4F2931310579F70F9486
:10E90000DCF10F5F1F4F0530110519F020E030E0FA
:10E91000E5CF10920A0210920B0210920C02109294
:10E920000D02109206021092070210920802109235
:10E930000902109202021092030210920402109235
:10E9400005028FEE90EE60E00F94F5F180E191EE1C
:10E9500060E00F94C2F18091C00087FFFCCF9091DE
:10E96000C600903608F09F759032B8F09093C600BC
:10E970008091C00086FFFCCF8091C00080648093AE
:10E98000C000A0E2A093C6008091C00086FFFCCF2B
:10E990008091C00080648093C000983409F4D7C18E
:10E9A0009934B8F4923409F459C1933458F490333B
:10E9B00019F1903308F4E3C59F33A1F1903409F0C5
:10E9C000DEC5BDC0953409F470C1963409F0D7C5D1
:10E9D00098C1923509F42BC2933538F49C3409F46C
:10E9E000F5C1913509F0CBC518C2963509F445C279
:10E9F000993509F0C4C567C483E792EE62E00F94CD
:10EA0000F5F110920602109207021092080210927D
:10EA1000090210920A0210920B0210920C0210923C
:10EA20000D0213C18FE792EE62E00F94F5F18FEEC5
:10EA300090EE60E00F94F5F181E291EE60E00F94CA
:10EA4000C2F187EB91EE60E00F94F5F180E391EE77
:10EA500060E00F94C2F184EE90EE60E00F94F5F167
:10EA60008FE391EE60E00F94C2F186E090E061E008
:10EA700070E00F9434F20F94DCF18DE591EE60E0DC
:10EA80000F94C2F189EC91EE60E00F94F5F18EE401
:10EA900091EE60E00F94C2F183EC91EE60E00F9490
:10EAA000F5F18CE691EE60E00F94C2F18EE10F94E7
:10EAB0000DF288E90F940DF281E00F940DF20F949E
:10EAC000DCF18BE791EE60E00F94C2F119E0E0E039
:10EAD000F0E010935700E4918E2F0F940DF20F94F5
:10EAE000DCF18AE891EE60E00F94C2F1E3E0F0E03F
:10EAF00010935700E4918E2F0F940DF20F94DCF1D8
:10EB000089E991EE60E00F94C2F1E2E0F0E0109349
:10EB10005700E4918E2F0F940DF20F94DCF188EAE8
:10EB200091EE60E00F94C2F1E1E0F0E01093570045
:10EB30001491812F0F940DF20F94DCF107CF8BE825
:10EB400092EE62E00F94F5F18BE492EE60E00F94A8
:10EB5000F5F10F94DCF100E010E019C0C8016F2D51
:10EB60000F947FFEFF2031F489E492EE60E00F9471
:10EB7000C2F10BC0F092C6008091C00086FFFCCFAE
:10EB80008091C00080648093C0000F5F1F4FC80158
:10EB900081519F41A0E0B0E0ABBFFC01F790BAE229
:10EBA000FB1621F0E2E000301E07C1F60F94DCF105
:10EBB0000F94DCF187E592EE60E00F94F5F10F948D
:10EBC000DCF1CC24DD2400E010E01EC0C8010F946D
:10EBD00077FEF82E882331F489E492EE60E00F94FA
:10EBE000C2F10BC08093C6008091C00086FFFCCFAD
:10EBF0008091C00080648093C000FE1419F00894D6
:10EC0000C11CD11C0F5F1F4FC80181519F41A0E063
:10EC1000B0E0ABBFFC01E790FAE2EF1621F022E092
:10EC20000030120799F60F94DCF10F94DCF182E6C4
:10EC300092EE60E00F94C2F1C60161E070E00F94C3
:10EC400034F20F94DCF10F94DCF110920202109276
:10EC50000302109204021092050278CE89E992EE26
:10EC600062E00F94F5F1279A2F9A16C02F9880E052
:10EC700090E0E0EDF7E03197F1F7019684369105E9
:10EC8000C1F72F9A80E090E0E0EDF7E03197F1F7DF
:10EC9000019684369105C1F78091C00087FFE6CFC9
:10ECA0008091C00087FFFCCF64C485EA92EE62E0E9
:10ECB0000F94F5F140910202509103026091040219
:10ECC0007091050281E020E10F9491F2809102029F
:10ECD00090910302A0910402B091050280509F4FD1
:10ECE000AF4FBF4F8093020290930302A0930402A0
:10ECF000B093050280509041A040B04008F426CE69
:10ED0000A4CF83EB92EE62E00F94F5F140910602FE
:10ED100050910702609108027091090280E020E1A1
:10ED20000F9491F28091060290910702A09108023F
:10ED3000B091090280509F4FAF4FBF4F80930602A2
:10ED400090930702A0930802B0930902FFCD80ECD4
:10ED500092EE62E00F94F5F183E792EE60E00F949B
:10ED6000F5F18FE792EE60E00F94F5F18BE892EE0B
:10ED700060E00F94F5F189E992EE60E00F94F5F10F
:10ED800085EA92EE60E00F94F5F183EB92EE60E09D
:10ED90000F94F5F180EC92EE60E00F94F5F187ECC2
:10EDA00092EE60E00F94F5F188ED92EE60E00F9442
:10EDB000F5F18FED92EE60E00F94F5F18AEE92EEB0
:10EDC00060E00F94F5F183E093EEBDCD87EC92EE19
:10EDD00062E00F94F5F181E40F947BF282E40F94EA
:10EDE0007BF283E40F947BF284E40F947BF285E45E
:10EDF0000F947BF286E40F947BF287E40F947BF20E
:10EE000088E40F947BF28AE40F947BF28BE40F94F6
:10EE10007BF28CE40F947BF299CD88ED92EE62E068
:10EE20000F94F5F1772473948824992409C48FED05
:10EE300092EE62E00F94F5F140910A0250910B02BC
:10EE400060910C0270910D0282E020E10F9491F22A
:10EE500080910A0290910B02A0910C02B0910D02D8
:10EE600080509F4FAF4FBF4F80930A0290930B0289
:10EE7000A0930C02B0930D0269CD8AEE92EE62E08F
:10EE80000F94F5F184EE90EE60E00F94F5F18FECC5
:10EE900091EE60E00F94F5F1662477244301CC5D98
:10EEA000DE4F19821882C452D140D401C301B695F5
:10EEB000A79597958795CA5DDE4F88839983AA8326
:10EEC000BB83C652D140CC5DDE4FA881B981C4520C
:10EED000D1401196CC5DDE4FB983A883C452D14096
:10EEE000CD0162E070E00F9434F2B0E2B093C6005E
:10EEF0008091C00086FFFCCF8091C0008064809329
:10EF0000C000EDE2E093C6008091C00086FFFCCF18
:10EF10008091C00080648093C000F0E2F093C6004E
:10EF20008091C00086FFFCCF8091C00080648093F8
:10EF3000C000CA5DDE4FE880F9800A811B81C6529D
:10EF4000D140BB27A12F902F8F2D0F940DF2CA5DBA
:10EF5000DE4F8881C652D1400F940DF2B0E2FB2EF5
:10EF6000F092C6008091C00086FFFCCF8091C00067
:10EF700080648093C0000DE30093C6008091C000C0
:10EF800086FFFCCF8091C00080648093C00010E2B7
:10EF90001093C6008091C00086FFFCCF8091C00016
:10EFA00080648093C0008BBEF3012791C65DDE4F65
:10EFB0002883CA52D140A22EBB24CC24DD2408943D
:10EFC000611C711C811C911C8BBEF3018791282E42
:10EFD0003324442455240894611C711C811C911C09
:10EFE0008BBEF3013791C55DDE4F3883CB52D140E4
:10EFF0000894611C711C811C911C8BBEF30147910C
:10F00000C45DDE4F4883CC52D140ADEFEA2EAFEF66
:10F01000FA2EAFEF0A2FAFEF1A2F6E0C7F1C801E57
:10F02000911E142D032DF22CEE24EA0CFB1C0C1D5A
:10F030001D1D0F940DF220E22093C6008091C000A8
:10F0400086FFFCCF8091C00080648093C000C65DC5
:10F05000DE4F8881CA52D1400F940DF230E23093D6
:10F06000C6008091C00086FFFCCF8091C000806404
:10F070008093C000C45DDE4F8881CC52D1400F9494
:10F080000DF240E24093C6008091C00086FFFCCFA5
:10F090008091C00080648093C000C55DDE4F888190
:10F0A000CB52D1400F940DF250E25093C6008091A4
:10F0B000C00086FFFCCF8091C00080648093C000B8
:10F0C0008FEFE8168FEFF80680E0080780E018075A
:10F0D00031F484E092EE60E00F94C2F1DFC0D80119
:10F0E000C7018070907CA070B0708050904CA040A0
:10F0F000B040D1F52FEF3FE340E050E0E222F322B1
:10F1000004231523CA5DDE4FA880B980CA80DB8046
:10F11000C652D140AE0CBF1CC01ED11EAA0CBB1CD7
:10F12000CC1CDD1C8EE092EE60E00F94C2F1BB2798
:10F13000A12F902F8F2D0F940DF28E2D0F940DF285
:10F1400030E23093C6008091C00086FFFCCF8091F2
:10F15000C00080648093C0004EE34093C60080915D
:10F16000C00086FFFCCF87C08EE09EEFA0E0B0E03D
:10F17000E822F9220A231B239CE0E91694E9F90608
:10F1800090E0090790E0190709F088C0C45DDE4FE0
:10F19000A881CC52D140EA2EFF2400E010E0102FCD
:10F1A0000F2DFE2CEE24C55DDE4FB881CB52D14031
:10F1B000EB0EF11C011D111DD601C501817090706F
:10F1C000A070B070DC0199278827E80EF91E0A1F8D
:10F1D0001B1F20EF30E040E050E0A222B322C42207
:10F1E000D52241E1AA0CBB1CCC1CDD1C4A95D1F7F1
:10F1F000EA0CFB1C0C1D1D1D81E090E0A0E0B0E0BE
:10F20000282239224A225B2235E1220C331C441C7D
:10F21000551C3A95D1F7E20CF31C041D151D57013E
:10F220006801AA0CBB1CCC1CDD1C85E192EE60E0E1
:10F230000F94C2F1C801AA27BB270F940DF2BB2778
:10F24000A12F902F8F2D0F940DF28E2D0F940DF274
:10F2500090E29093C6008091C00086FFFCCF809121
:10F26000C00080648093C000AEE3A093C60080918C
:10F27000C00086FFFCCF8091C00080648093C000F6
:10F28000C601AA27BB270F940DF2BB27AD2D9C2DDD
:10F290008B2D0F940DF28A2D0F940DF20F94DCF14B
:10F2A000CC5DDE4FE881F981C452D140F99709F471
:10F2B0004DCBF4E0EF2EF12C012D112D6E0C7F1CA7
:10F2C000801E911EF2CD83E093EE62E00F94F5F183
:10F2D0008AE192EE60E00F94C2F18091C00087FF56
:10F2E000FCCF1091C6001F751093C6008091C0001E
:10F2F00086FFFCCF8091C00080648093C0000F9493
:10F30000DCF1812F81548A3108F036C1163409F4BA
:10F3100095C0173490F4133409F44EC0143430F40B
:10F320001134F1F0123409F01DC130C0143409F465
:10F3300059C0153409F016C16BC01A3409F4C4C0A1
:10F340001B3438F4173409F48FC0183409F00AC19B
:10F35000A1C01B3409F4D2C01C3409F003C1E8C0B9
:10F360008FEF81B90DC082B1809582B980E090E0C5
:10F37000E0EDF7E03197F1F70196883C9105C1F790
:10F380008091C00087FFEFCF12B8EFC08FEF84B934
:10F390000DC085B1809585B980E090E0E0EDF7E0A3
:10F3A0003197F1F70196883C9105C1F78091C00033
:10F3B00087FFEFCF15B8D9C08FEF87B90DC088B1DF
:10F3C000809588B980E090E0E0EDF7E03197F1F7C3
:10F3D0000196883C9105C1F78091C00087FFEFCF6F
:10F3E00018B8C3C08FEF8AB90DC08BB180958BB9A7
:10F3F00080E090E0E0EDF7E03197F1F70196883C8E
:10F400009105C1F78091C00087FFEFCF1BB8ADC059
:10F410008FEF8DB90DC08EB180958EB980E090E0F0
:10F42000E0EDF7E03197F1F70196883C9105C1F7DF
:10F430008091C00087FFEFCF1EB897C08FEF80BBD1
:10F440000DC081B3809581BB80E090E0E0EDF7E0F6
:10F450003197F1F70196883C9105C1F78091C00082
:10F4600087FFEFCF11BA81C08FEF83BB0DC084B38C
:10F47000809584BB80E090E0E0EDF7E03197F1F714
:10F480000196883C9105C1F78091C00087FFEFCFBE
:10F4900014BA6BC08FEF809301010FC080910201FD
:10F4A00080958093020180E090E0E0EDF7E03197F5
:10F4B000F1F70196883C9105C1F78091C00087FF64
:10F4C000EDCF1092020151C08FEF809304010FC065
:10F4D0008091050180958093050180E090E0E0ED4A
:10F4E000F7E03197F1F70196883C9105C1F78091DB
:10F4F000C00087FFEDCF1092050137C08FEF8093DA
:10F5000007010FC08091080180958093080180E079
:10F5100090E0E0EDF7E03197F1F70196883C910536
:10F52000C1F78091C00087FFEDCF109208011DC088
:10F530008FEF80930A010FC080910B01809580931B
:10F540000B0180E090E0E0EDF7E03197F1F70196F4
:10F55000883C9105C1F78091C00087FFEDCF1092E4
:10F560000B0103C085E292EEEEC98091C00087FFD7
:10F57000FCCF8091C600EAC988E392EEE4C98CE131
:10F5800091EEE1C988249924933011F1943028F444
:10F59000913089F09230B8F408C0953061F195301F
:10F5A000F0F0963009F048C043C02B3109F042C951
:10F5B00091E06BE13FC96227C15DDE4F2883CF52E6
:10F5C000D14092E037C9B22FA0E0622793E032C960
:10F5D000822F90E0A82BB92B622794E02BC92E3004
:10F5E00009F039C3622795E0C05DDE4F19821882A9
:10F5F000C053D1401FC9E1E0F0E0EC0FFD1FC05D3A
:10F60000DE4F08811981C053D140E00FF11F2083E4
:10F610000F5F1F4FC05DDE4F19830883C053D14079
:10F6200062270A171B0709F005C9D80196E002C92D
:10F63000261709F010C303C0973009F0FBC87724E0
:10F640009981933109F412C19431C8F4963009F4C8
:10F65000D8C0973050F4923009F406C1933009F4C1
:10F660006DC0913009F059C253C0913109F477C08F
:10F67000923108F0BBC0903109F04FC2F5C098310B
:10F6800009F487C0993150F4953109F4EFC09531F0
:10F6900008F4C6C1963109F040C2C2C19A3109F4DA
:10F6A0006CC09A3108F491C09B3109F45BC09D3164
:10F6B00009F033C29D81903359F48F81882311F46E
:10F6C0009EE11CC0813011F091E018C098E916C08D
:10F6D000892F807591F0903539F4E0E0F0E089E011
:10F6E0008093570094910AC0983539F4E3E0F0E034
:10F6F00089E080935700949101C090E01A821B82A8
:10F700008D818C831D829E831F8227E030E009C299
:10F710001A8288E08B8381E48C8386E58D8382E581
:10F720008E8389E48F8383E5888780E589878FE5E9
:10F730008A8782E38B872BE030E0F3C18A818139AD
:10F7400041F0823941F0803911F48FE005C080E04A
:10F7500003C082E001C08AE01A828B8344C0772410
:10F76000739482C08D81882311F48EE12CC0813086
:10F7700011F081E028C088E926C01A82E1E0F0E0BB
:10F7800089E08093570084918B831C8224E030E0D1
:10F79000C8C18B81803589F48C81883039F4E2E0EE
:10F7A000F0E089E08093570084910DC0E0E0F0E044
:10F7B00089E080935700849106C0E3E0F0E089E09F
:10F7C0008093570084911A82DFCF8D81836C99E0FA
:10F7D000E1E0F0E0082E90935700E89507B600FCB2
:10F7E000FDCF1A821B8223E030E09BC180EC8A832C
:10F7F000CE5CDE4F188219821A821B82C253D1401E
:10F800008EC18A8190E0A0E0B0E0582F44273327D2
:10F8100022278B8190E0A0E0B0E0DC0199278827C7
:10F82000282B392B4A2B5B2B8D8190E0A0E0B0E098
:10F83000282B392B4A2B5B2B8C8190E0A0E0B0E089
:10F84000BA2FA92F982F8827282B392B4A2B5B2BCF
:10F85000220F331F441F551FC05EDE4F288339839C
:10F860004A835B83C052D1401A8259C13A81C95C34
:10F87000DE4F3883C753D140CA5CDE4F1882C6536F
:10F88000D1408B81C82EDD24CA5CDE4F488159816E
:10F89000C653D140C42AD52A933109F082C0CE5C28
:10F8A000DE4F88819981AA81BB81C253D1408050AB
:10F8B000904CA340B04030F583E0CE5CDE4FE88052
:10F8C000F9800A811B81C253D140F70100935B008C
:10F8D00080935700E89507B600FCFDCFCE5CDE4F65
:10F8E000088119812A813B81C253D14000501F4FAA
:10F8F0002F4F3F4FCE5CDE4F088319832A833B8313
:10F90000C253D140C05EDE4F488159816A817B81FC
:10F91000C052D140DE011B9631E08C9111962C91A2
:10F9200011971296C75CDE4F2883C953D140C85C3B
:10F93000DE4F1882C853D14090E0C85CDE4FE881AA
:10F94000F981C853D1408E2B9F2B0C01FA01609393
:10F950005B0030935700E89511244E5F5F4F6F4F67
:10F960007F4F0EEFE02E0FEFF02ECE0CDF1CC114F8
:10F97000D10499F685E0C05EDE4F088119812A81A5
:10F980003B81C052D140F80120935B008093570027
:10F99000E89507B600FCFDCF81E180935700E8951C
:10F9A00035C0C05EDE4F88819981AA81BB81C0527B
:10F9B000D140B695A795979587957C018601ABE0D8
:10F9C000AA2EB12CAC0EBD1E0BC0D5016D915D01F0
:10F9D000C7010F947FFE0894E11CF11C01501040F8
:10F9E0000115110591F7A60160E070E0440F551F65
:10F9F000661F771FC05EDE4FE880F9800A811B8199
:10FA0000C052D1404E0D5F1D601F711F1A82C05E33
:10FA1000DE4F488359836A837B83C052D1407FC0C5
:10FA2000FA80C55CDE4FF882CB53D140C65CDE4F16
:10FA30001882CA53D1408B81C82EDD24C65CDE4FAC
:10FA400008811981CA53D140C02AD12A1A828981DA
:10FA5000BE016D5F7F4F843121F59601C05EDE4FA0
:10FA6000E880F9800A811B81C052D1400BBFF701A9
:10FA700087919691DB018C9311969C936E5F7F4FDB
:10FA8000D801C7010296A11DB11DC05EDE4F88835B
:10FA90009983AA83BB83C052D14022503040F1F6F3
:10FAA00036C0C05EDE4F288139814A815B81C052F9
:10FAB000D1400894C108D108760100E010E0089414
:10FAC000C11CD11C0894E11CF11C011D111DE20E8A
:10FAD000F31E041F151F21BDBB27A52F942F832FB5
:10FAE00082BD2F5F3F4F4F4F5F4FF89A80B5DB01CC
:10FAF0008D93BD012E153F054007510761F7C05E8C
:10FB0000DE4F288339834A835B83C052D1409601FC
:10FB10002D5F3F4FFB01108204C080EC8A8322E0FE
:10FB200030E08BE18093C6008091C00086FFFCCF5F
:10FB30008091C00080648093C000C15DDE4FF88179
:10FB4000CF52D140F093C6008091C00086FFFCCF19
:10FB50008091C00080648093C000432F3093C60022
:10FB60008091C00086FFFCCF8091C00080648093AC
:10FB7000C000922F2093C6008091C00086FFFCCF6A
:10FB80008091C00080648093C0008EE08093C600A6
:10FB90008091C00086FFFCCF8091C000806480937C
:10FBA000C00065E1C15DDE4FE880CF52D1406E25D7
:10FBB00069276427FE01319610C090819093C6009A
:10FBC0008091C00086FFFCCF31968091C000806498
:10FBD0008093C0006927215030402115310569F715
:10FBE0006093C6008091C00086FFFCCF8091C0006A
:10FBF00080648093C00085B1805885B9772081F4F6
:10FC0000C15DDE4F0881CF52D1400F5FC15DDE4F35
:10FC10000883CF52D14090E0A0E0B0E00D941AF4F8
:10FC200027982F9880E090E020ED37E0F901319798
:10FC3000F1F7019684369105C9F700008091C00064
:10FC40008D7F8093C00081E180935700E895EE2777
:10FC5000FF270994FFCF90E00D941AF497FB092E2B
:10FC600007260AD077FD04D02ED006D000201AF443
:10FC7000709561957F4F0895F6F7909581959F4F08
:10FC80000895A1E21A2EAA1BBB1BFD010DC0AA1FDD
:10FC9000BB1FEE1FFF1FA217B307E407F50720F0F5
:10FCA000A21BB30BE40BF50B661F771F881F991F70
:10FCB0001A9469F760957095809590959B01AC01B9
:10FCC000BD01CF010895AA1BBB1B51E107C0AA1FAC
:10FCD000BB1FA617B70710F0A61BB70B881F991FED
:10FCE0005A95A9F780959095BC01CD010895F99991
:10FCF000FECF92BD81BDF89A992780B50895262F31
:10FD0000F999FECF1FBA92BD81BD20BD0FB6F89400
:0EFD1000FA9AF99A0FBE01960895F894FFCF63
:040000033000E000E9
:00000001FF